:020000040800F2
:1000000000C00020819B0008F5960008F9960008C2
:10001000FD96000801970008059700080000000001
:100020000000000000000000000000000997000828
:100030000D970008000000001197000815970008B0
:10004000C99B0008C99B0008C99B0008C99B000800
:10005000C99B0008C99B0008C99B0008C99B0008F0
:10006000C99B0008C99B0008C99B0008C99B0008E0
:10007000C99B0008C99B0008259700083197000814
:10008000C99B0008C99B0008C99B0008C99B0008C0
:100090003D970008C99B0008C99B0008C99B000840
:1000A000C99B0008C99B0008C99B0008C99B0008A0
:1000B000C99B000849970008C99B0008C99B000814
:1000C000C99B0008C99B0008C99B0008C99B000880
:1000D000C99B0008C99B0008C99B0008C99B000870
:1000E000C99B0008C99B0008C99B0008C99B000860
:1000F000C99B0008C99B0008C99B0008C99B000850
:10010000C99B0008C99B0008C99B0008C99B00083F
:10011000C99B0008C99B0008C99B0008C99B00082F
:100120005597000861970008C99B00086D97000863
:1001300000000000000000000000000000000000BF
:1001400000000000000000000000000000000000AF
:10015000000000000000000000000000000000009F
:10016000000000000000000000000000000000008F
:10017000000000000000000000000000000000007F
:10018000000000000000000000000000000000006F
:10019000000000000000000000000000000000005F
:1001A000000000000000000000000000000000004F
:1001B000000000000000000000000000000000003F
:1001C000000000000000000000000000000000002F
:1001D000000000000000000000000000000000001F
:0401E0005FF8E0F1F3
:1001E40010B5054C237833B9044B13B10448AFF36D
:1001F40000800123237010BD1802002000000000BD
:10020400C8A400080C4B43B10C4810B50C49AFF31B
:1002140000800C48036823B910BD0A48036833B949
:100224007047094B002BF7D0BDE810401847064B28
:10023400002BF5D0184700BF00000000C8A4000838
:100244001C02002018020020000000004FF47A7302
:1002540070B50D4D0D4A29781268B3FBF1F30646CB
:10026400B2FBF3F000F09EF808B90F2E01D901207B
:1002740070BD0446024631464FF0FF3000F050F89E
:100284006E60204670BD00BF000000206C0100209D
:10029400074A08B51368032043F01003136000F005
:1002A4002DF80020FFF7D2FF09F052F8002008BD16
:1002B40000200240034A044B11681B780B4413606E
:1002C400704700BFA004002000000020014B186804
:1002D400704700BFA004002038B50446FFF7F6FFBE
:1002E400631C054602D0044B1B781C44FFF7EEFF49
:1002F400401B8442FAD838BD000000204FF6FF01AD
:10030400064A0002D36800F4E0600B4043F0BF6388
:1003140043F400330343D360704700BF00ED00E0B3
:10032400184B70B4DC68C4F30224C4F10706042E2D
:1003340004F1040328BF0426062B17D90125033C26
:10034400A540013D2A400123B340013B1940A1408F
:10035400002841EA02010CDB090100F16040C9B246
:1003640000F5614080F8001370BC70470022144609
:10037400E9E7054B00F00F000901C9B203441976FF
:1003840070BC704700ED00E0FCEC00E0012300F0DD
:100394001F01034A40098B4042F82030704700BFD8
:1003A40000E100E00138B0F1807F0DD230B4F025D7
:1003B40000220721054B064C586084F82350104650
:1003C40030BC9A60196070470120704710E000E06B
:1003D40000ED00E0044A042813680CBF43F0040352
:1003E40023F004031360704710E000E0704700BF7F
:1003F40008B5FFF7FBFF08BD00283AD0F0B41E4A49
:100404000568034695422BD91C491D4A2944A2FB81
:1004140001211C4E090989000024012798685A68A3
:10042400DE63DE680243186932435E690243324385
:100434009E6928683243DE6920F47F50324320F0FD
:1004440030000243196420462A609C62DC621C630B
:100454005C639C6383F8204083F82170F0BC704790
:100464000949074A2944A2FB012109098900074EC9
:10047400D2E70120704700BF07040240F8FBFDBF2C
:10048400CDCCCCCC00040240F8FFFDBF00000240FC
:10049400F0B590F82040012C0CD0012590F82140B3
:1004A40080F82050AC4208D00022022380F820209B
:1004B4001846F0BD02231846F0BD00264FF0020C8A
:1004C400056886632E68076CD0F83CE0BC4026F0D3
:1004D4000106476880F821C02E60CEF804406B60A6
:1004E400C36A102F0BBFAA60A960E960EA604BB130
:1004F4002B6843F00E032B602A68002342F00102AC
:100504002A60D5E72B6823F004032B602B6843F0A3
:100514000A032B60F0E700BF0422F0B4C66B016C41
:10052400346803688A4022421D682BD06F0729D59E
:100534001A68920603D41A6822F004021A60644A04
:1005440093426DD863498B4200F0868014318B420C
:1005540000F0868014318B427BD014318B4200F042
:10056400978014318B4200F0998014318B4200F053
:100574009B80934214BF4FF480234FF08063564A0C
:1005840053605FE002228A4022422FD0AF072DD56C
:100594001A68910606D401211A6822F00A021A6028
:1005A40080F821104A4A93425FD84A498B4255D079
:1005B40014318B424BD014318B4253D014318B42C3
:1005C40069D014318B426CD014318B426FD093427A
:1005D40014BF4FF400334FF000733F4A53600022BE
:1005E400836A80F82020CBB9F0BC704708228A4087
:1005F4002242F9D02A07F7D5012200271C68056B8F
:1006040024F00E0402FA01F11C607160826380F828
:10061400212080F82070002DE6D02B46F0BC18472E
:100624002E4A934246D01432934247D01432934216
:1006340048D0143293420CBF4FF480424FF48022CE
:10064400274B5A60C36A002BCED0F0BC1847202336
:10065400C3E74FF4806392E7042390E70223BCE7E7
:1006640040238CE74FF40073B7E71C4A934223D02E
:100674001432934224D01432934226D0143293423B
:100684000CBF4FF400524FF40032154B5A60A6E7EA
:100694004FF4804373E74FF400539EE74FF48023F5
:1006A4006DE74FF4003398E74FF4800367E74FF4A6
:1006B400001392E70422C3E70222E6E74022BFE7E1
:1006C4002022E2E74FF48062BAE74FF40072DCE7DD
:1006D400800002400800024000000240080402407A
:1006E400000402402DE9F04F4FF0000883B0434668
:1006F4006FF01F06DFF810E2DFF810C205E00133E7
:10070400102B06F1040600F0988001220C689A4030
:100714001440A242F3D14D68122D00F0B38000F2D0
:100724009B80022D00F0B58040F28F80032D00F0F5
:10073400AD80112D02D1CA6802F10408FF2C7FD8C4
:10074400814602684FEA830A0F2505FA0AFB22EA6A
:100754000B0208FA0AFA42EA0A02C9F80020D1F8A0
:1007640004A01AF0805FCAD0DEF8189023F00302C8
:1007740049F00109CEF81890DEF8189002F1804291
:1007840009F00109CDF8049002F5803203F0030961
:10079400DDF804B04FEA8909D2F808B005FA09F582
:1007A40060452BEA050700F08980504DA84200F00F
:1007B40088804F4DA84200F089804E4DA84200F039
:1007C4008A804D4DA84200F08B804C4DA8420CBF4E
:1007D4004FF0050B4FF0060B0BFA09F947EA090530
:1007E4009560474A1AF4803F1268454D14BF22436E
:1007F400A2432A60424A1AF4003F5268404D14BF93
:100804002243A2436A603E4A1AF4801F92683C4D18
:1008140014BF2243A243AA60394A1AF4001FD268C3
:1008240003F1010314BF144322EA0404344A102BD5
:10083400D46006F104067FF468AF03B0BDE8F08F1E
:10084400B246426800F104097EE7B5B1012D7FF498
:1008540075AFD1F80C8071E72A4FBD420DD01CD979
:10086400DFF8AC904D4508D009F580394D4504D0EA
:10087400A9F580194D457FF461AF8D68BDB94FF07E
:1008840004085BE7CA6802F10C0857E74FF0000858
:1008940054E7CA6802F1080850E7DFF878904D453C
:1008A400EBD009F580394D457FF448AFE5E7012DDC
:1008B4000CBF026142614FF008083FE74FF00009A6
:1008C4008CE74FF0010B0BFA09F987E74FF0020BA5
:1008D4000BFA09F982E74FF0030B0BFA09F97DE7EC
:1008E4004FF0040B0BFA09F978E700BF000C014044
:1008F400001001400014014000180140001C014098
:1009040000040140000021100010024000080140D2
:10091400000031100000111002B909040161704790
:1009240000287ED0F8B590F83D30044603F0FF026D
:10093400002B61D02423226884F83D30136823F00F
:100944000103136001F018F96368374A934230D801
:10095400364A90424ED95A00431EB3FBF2F3013398
:10096400C3F30B03042B38BF0423314AA2FB00203A
:100974002268800C411C5060116200214FF0200E4F
:10098400E069E768266A256906433D436069A7690B
:10099400D361384316609560D0601368084643F00D
:1009A40001031360216484F83DE0216384F83E1060
:1009B400F8BD204A90421DD94FF496711C4D1E4A31
:1009C400A5FB0065AD0C01FB05F1A2FB0121A668A6
:1009D4002268890901315560116296B9013803EB27
:1009E4004303B0FBF3F30133C3F30B03BBB143F491
:1009F4000043C2E70120F8BD80F83C2008F0F8FC71
:100A040098E703EB830303EB83030138B0FBF3F3B1
:100A14000133C3F30B0313B143F44043ADE70123A4
:100A2400ABE70120704700BFA08601007F841E0051
:100A340083DE1B43FF083D00D34D6210002800F005
:100A4400F0812DE9F04F90F8293487B0044603F083
:100A5400FF02002B00F0E0814FF0030827466D46AB
:100A640084F82984206802F0F9FF57F8106B4FF0DE
:100A7400040A0FCF0FC53B68221D2B600ECA3046F7
:100A840002F0DAFF0021206802F0F2FF00250126BF
:100A94004FF0020B4FF005094FF0070184F88880EE
:100AA40084F8296084F8496084F8486084F86960AF
:100AB40084F8896084F8A96084F8C96084F82850AF
:100AC40084F82B50A563E563256484F84B50A56531
:100AD400E565256684F86B50A567E567C4F8805022
:100AE40084F88B50C4F89850C4F89C50C4F8A050B3
:100AF40084F8AB50C4F8B850C4F8BC50C4F8C05023
:100B040084F868B084F8A8A084F8C89084F8CB501E
:100B140084F808114FF00A0106200822092384F8FA
:100B240068114FF00B0184F8E80084F8282184F858
:100B34004831C4F8D850C4F8DC50C4F8E05084F804
:100B4400E96084F8EB50C4F8F850C4F8FC50C4F8D9
:100B5400005184F8096184F80B51C4F81851C4F8A1
:100B64001C51C4F8205184F8296184F82B51C4F82D
:100B74003851C4F83C51C4F8405184F8496184F8B0
:100B84004B51C4F85851C4F85C51C4F8605184F80E
:100B9400696184F86B51C4F87851C4F87C51C4F885
:100BA400805184F888114FF00C0184F8A8114FF09B
:100BB4000D0184F8C8114FF00E0184F8E8114FF0CC
:100BC400070184F8896184F88B51C4F89851C4F8FA
:100BD4009C51C4F8A05184F8A96184F8AB51C4F8BD
:100BE400B851C4F8BC51C4F8C05184F8C96184F840
:100BF400CB51C4F8D851C4F8DC51C4F8E05184F89E
:100C0400E96184F8EB51C4F8F851C4F8FC51C4F814
:100C1400005284F8295284F82852A58684F82B526D
:100C2400C4F83852C4F83C52C4F8405284F84952CB
:100C340084F8486284F88882A4F89480A4F8546004
:100C440084F84B52C4F85852C4F85C52C4F8605249
:100C540084F8695284F868B2A4F874B084F86B52CA
:100C6400C4F87852C4F87C52C4F8805284F889528B
:100C740084F88B52C4F89852C4F89C52C4F8A05219
:100C840084F8A95284F8A8A2A4F8B4A084F8AB52BA
:100C9400C4F8B852C4F8BC52C4F8C05284F8C9525B
:100CA40084F8C892A4F8D49084F8CB52C4F8D852EB
:100CB400C4F8DC52C4F8E05284F808134FF007017A
:100CC400A4F814114FF00A0184F868134FF00A01D4
:100CD400A4F874114FF00B0184F8E802A4F8F400AE
:100CE40084F82823A4F8342184F84833A4F8543130
:100CF40084F8E95284F8EB52C4F8F852C4F8FC5270
:100D0400C4F8005384F8095384F80B53C4F81853F7
:100D1400C4F81C53C4F8205384F8295384F82B5383
:100D2400C4F83853C4F83C53C4F8405384F84953C6
:100D340084F84B53C4F85853C4F85C53C4F8605354
:100D440084F8695384F86B53C4F8785384F888138F
:100D54004FF00C0184F8A8134FF00D0184F8C81368
:100D64004FF00E01A64684F8E8134FF00B01C4F8C7
:100D7400805384F8895384F88B53C4F8A05384F8BF
:100D8400A95384F8AB53C4F8C05384F8C95384F806
:100D9400CB53C4F8E05384F8E95384F8EB53C4F814
:100DA40000545EF8108BA4F894114FF00C01A4F8D1
:100DB400B4114FF00D01EC46A4F8D4114FF00E011C
:100DC400C4F87C53C4F89853C4F89C53C4F8B8537B
:100DD400C4F8BC53C4F8D853C4F8DC53A4F8F411D1
:100DE400C4F8F853C4F8FC53BEE80F00ACE80F0095
:100DF4003B6804EB0A02CCF800300ECA404602F00D
:100E040039FE84F82450206884F8296403F05EFADB
:100E1400284607B0BDE8F08F80F8282408F02AFDA2
:100E24001AE60120704700BF90F82824012A01D156
:100E340002207047012110B5044680F8281408F0F8
:100E440049FE206803F040FA206802F0FDFD00200E
:100E540084F8280410BD00BF2DE9F04F044683B088
:100E6400006803F035FA020444D4206803F030FA31
:100E7400460500F10582206803F02AFA10F4804F39
:100E8400206807D0B0F8443023F480431B041B0CC3
:100E9400A0F8443003F01CFA10F4005F206807D077
:100EA400B0F8443023F400531B041B0CA0F8443066
:100EB40003F00EFAC50400F1C581206803F008FAB6
:100EC400000500F19E81206803F002FA820500F11A
:100ED4008B81206803F0FCF9C30508D52268B2F8B9
:100EE400443023F480731B041B0CA2F8443003B079
:100EF400BDE8F08F00232068DFF8D884DFF8D8A499
:100F0400DFF8D8B4ADF80430ADF80630B0F84430AA
:100F14009BB21F04ADF80430A8D5BDF8045015F0F9
:100F24000F0552D1BDF80410038811F010019BB2D3
:100F340000F09080ADF80630BDF806301B0500F1D6
:100F44003381BDF806301F04E0D540F68F73028864
:100F540013400380B0F8503094F828229BB203EB7E
:100F6400C20300EB4303D3F80C34C3F30903C4F8FE
:100F74004432002B40F013820021204608F09EFCEE
:100F84002068D4F83812B0F850303E299BB200F5EE
:100F9400806503F1060340F2CA81C1F34F12CE0605
:100FA40004BF02F1FF3292B24BEA822292B245F8B8
:100FB400132003889BB203EA0A0383F4405343F4E7
:100FC400004343F080030380A0E730F825309BB250
:100FD400ADF80630BDF806301A0478D4BDF80630F2
:100FE4001B0693D530F825306E019BB203EA080343
:100FF40020F82530A11991F83230002B40F0B2804E
:10100400B0F8503091F828209BB203EBC2030233AE
:1010140000F5806252F81330C3F309034B64002BCC
:1010240040F07D812644B0F8503096F828109BB2E9
:1010340003EBC103023352F81330F26BC3F3090319
:10104400356C1A447364F26355BB204608F03EFCC9
:1010540020685BE703EA08030380B0F8503094F893
:1010640028209BB203EBC20300EB4300D0F8043406
:10107400E26BC3F309031A446364E263204608F095
:1010840025FC94F8243003B3236CF3B994F824209A
:10109400206842F08002A0F84C2084F8243035E720
:1010A4004FF0000E012796F8286006F07F067101C4
:1010B4006318283183F82860DA631D642144C3F877
:1010C40044E083F8297002F065FF20681EE740F6CB
:1010D4008F7330F825206E01134020F8253004EB7F
:1010E400060999F83232002B00F0E88099F828328A
:1010F40030F8231000EB830211F4804FB0F8501045
:1011040089B201EBC30300EB430300F01B81D3F866
:101114000474C7F30907002F40F0578140F60F739A
:1011240011880B4043F4004343F0C0031380A31918
:10113400D3F84412D3F83C22D3F8400239443A4459
:10114400C3F84412C3F83C2220B1D3F838128F42BA
:1011540080F00C812644204696F8281208F0AEFB55
:1011640020683BE791F8282004EB451530F822303D
:1011740013F0400FB0F850309BB203EBC20300F001
:10118400B580023300F5806252F81330C3F30903CB
:101194006B64002B00F0B480CA8DC96B03F09EF819
:1011A400206800F58062ABE0B0F8503094F8282253
:1011B4009BB203EBC20300EB4303D3F80C34B4F843
:1011C4002C22C3F30903C4F8443204F22C4103F083
:1011D40097F840F68F732268204611880B401380DD
:1011E40008F066FB206891E622682046B2F8443095
:1011F40023F400731B041B0CA2F8443008F06EFBAC
:1012040067E62368B3F84020184692B242F0080219
:10121400A3F84020B3F8442022F400621204120C14
:10122400A3F84420B3F8402092B242F00402A3F899
:10123400402003F04DF8C1043FF545AE204608F0C8
:101244005FFB40E622682046B2F8403023F00403F6
:101254001B041B0CA2F84030B2F8403023F0080302
:101264001B041B0CA2F8403008F05AFB2068B0F8AD
:10127400443023F480531B041B0CA0F844301DE6B7
:1012840022682046B2F8443023F480631B041B0C0C
:10129400A2F8443008F026FB94F82834012B3FF4DC
:1012A400EAAD0025012384F8245084F82834294623
:1012B400206803F003F884F82854DCE5B0F85030D3
:1012C40099F828229BB203EBC20300EB4303D3F843
:1012D4000C74C7F30907002F3FF429AF3B46B9F854
:1012E4002C22D9F83C1203F00BF820E7063300F562
:1012F400806252F81330C3F309036B64002B5CD192
:1013040040F60F73A11991F8281030F821502B40A2
:1013140043F4404343F0800320F8213082E68A8D71
:10132400C96B02F0DBFF206800F580627AE6C1F346
:101334004F02C90744BF013292B2920292B245F8F9
:10134400132036E6D3F80C74C7F30907002F3FF4D3
:10135400E5AE3B46B9F83022D9F83C1202F0D0FF92
:1013640099F82832226802EB8302D7E6002793F823
:10137400286206F07F067101631801F50A71C3F84B
:10138400400283F82862C3F83C222144C3F8447223
:1013940083F82972206802F0FDFD20681EE6B4F887
:1013A4002C22D4F83C1202F0ABFFD4F83C32D4F82F
:1013B40044221344C4F83C32DEE50A8EC96B02F0C1
:1013C4008DFF206800F580629AE73B46B9F82E222B
:1013D400C2E700BF0F8FFFFF8FBFFFFF0080FFFF3B
:1013E40090F82824012A01D10220704710B5044640
:1013F400012284F8241080F82824006802F05EFF9B
:10140400002084F8280410BD38B54CB2002C0546E1
:1014140019DB00EB411000F50A70E40F4470017011
:10142400C37095F828340261012B01D1022038BD24
:101434000123014685F82834286802F035FB002092
:1014440085F8280438BD01F07F0100EB41102830F5
:10145400E3E700BF4AB2002A10B5044617DB00EBED
:10146400411303F50A73D20F5A70197094F82824A3
:10147400012A01D1022010BD0122194684F8282432
:10148400206802F0A9FC002084F8280410BD01F0B3
:101494007F0100EB41132833E5E700BF70B5002658
:1014A40001F07F014D01441905F50A7584F82812ED
:1014B400C4F83C224119C4F840320068C4F84462BC
:1014C40084F8296202F066FD304670BD01F00F0118
:1014D40000EB4111B1F84402704700BFF8B5002693
:1014E400012701F07F014D014419283584F82810A3
:1014F400E26341192364006884F82970666402F089
:1015040049FD3046F8BD00BF38B54BB2002B0C4640
:10151400054618DB00EB411101F50A710122DB0FCE
:101524004B700C708A7095F82834934201D10220D4
:1015340038BD85F82824286802F036FE4CB1002016
:1015440085F8280438BD01F07F0400EB44112831EC
:10155400E4E705F22C41286802F0BEFEEFE700BF85
:101564004AB2002A38B5054619DB00EB411303F5EE
:101574000A730024D20F5A7019709C7095F82824AD
:10158400012A01D1022038BD0122194685F82824F8
:10159400286802F043FE85F82844204638BD01F04F
:1015A4007F0100EB41132833E3E700BF11F0800F04
:1015B4000CD001F07F0100EB4110283062B1012210
:1015C400190CC380018182720020704700EB411026
:1015D40000F50A70002AF2D18380827200207047DD
:1015E4002DE9F041036882B0DD07044630D5AD49EA
:1015F4004A6802F00C02042A00F0FA804A6802F0F9
:101604000C02082A00F0F0806368B3F5803F00F014
:101614007481002B00F00481B3F5A02F00F0A981A0
:10162400A04B1A6822F480321A601A6822F48022CD
:101634001A60FEF74BFE9B4D064605E0FEF746FE9C
:10164400801B642800F217812B689A03F6D523685F
:101654009F0728D5934A516811F00C0F00F0A98018
:10166400516801F00C01082900F09F802369002BC8
:1016740000F0328101228C4B8A4D1A60FEF726FE5F
:10168400064605E0FEF722FE801B022800F2F380E6
:101694002B689807F6D52B68626923F0F80343EAB0
:1016A400C2032B6023681A075DD45D073AD57D4BCE
:1016B400DA69D00000F1A6800125DA6942F080528F
:1016C400DA61DB6903F080530093009B774B1A685F
:1016D400D10540F1BF80E368012B00F01481002B99
:1016E40000F0CD80052B6F4B1A6A00F04F8122F079
:1016F40001021A621A6A22F004021A62FEF7E6FD77
:10170400684E804641F2883706E0FEF7DFFDA0EB25
:101714000800B84200F2AF80336A9B07F5D5002D6C
:1017240040F0F780E369D3B15E4D6A6802F00C02C1
:10173400082A45D0022B4FF000025D4B00F0EF80E9
:101744001A60FEF7C3FD2C46054605E0FEF7BEFD14
:10175400401B022800F28F8023689B01F6D40020EE
:1017640002B0BDE8F081A369002B2DD00122514BBA
:101774004C4D1A60FEF7AAFD064604E0FEF7A6FDEE
:10178400801B022877D86B6A9B07F7D54A4B4B4AD4
:101794001B68A2FB03235B0A019300BF019B5A1E33
:1017A4000192002BF9D123687FE75268D6033FF5F5
:1017B4005DAF3C4A1268950726D52269012A23D0D9
:1017C400012002B0BDE8F0813A4A364D1360FEF7BD
:1017D4007DFD064604E0FEF779FD801B02284AD809
:1017E4006B6A9F07F7D4DEE74A68D0037FF50CAF36
:1017F4002C4A126891037FF52BAF6268002A7FF4AC
:1018040027AFDDE7002561E7264960690A6822F011
:10181400F80242EAC0020A601A077FF546AFA2E75F
:1018240003F1804303F504331A681D4622F4803221
:101834001A601A6822F480221A60FEF747FD0646F1
:1018440004E0FEF743FD801B642814D82B689B0337
:10185400F7D4FCE61A681E4642F480721A60FEF75A
:1018640035FD07463368DA053FF535AFFEF72EFD43
:10187400C01B6428F6D9032002B0BDE8F08103F14F
:10188400804303F504331A6A1E4622F001021A62E9
:101894001A6A41F2883822F004021A62FEF716FD31
:1018A400074612E00010024000004242007000406F
:1018B40060004242800442426C010020D34D621019
:1018C400FEF704FDC01B4045D5D8336A9807F7D40A
:1018D400002D3FF427AF1CE0344A354D1360FEF76A
:1018E400F5FC064604E0FEF7F1FC801B0228C2D892
:1018F4002B689907F7D42368D5E62D4A136843F477
:101904008033136095E62A4A136A43F00103136295
:10191400F4E6274AD36923F08053D36102E71A60BF
:10192400FEF7D4FC064604E0FEF7D0FC801B022838
:10193400A1D82B689901F7D4226AB2F5803F2DD043
:1019440001251B4B606A5968024321F4741119483C
:101954000A435A6005601C46FEF7B8FC054604E0DD
:10196400FEF7B4FC401B022885D823689A01F7D5FA
:10197400F5E603F18043A3F53C331A6842F4802270
:101984001A601A6842F480321A6052E642F0040285
:101994001A621A6A42F001021A62AFE66B68A16821
:1019A40023F400330B436B60CAE700BF00004242DC
:1019B4000010024060004242654A136803F00703C6
:1019C4008B420BD2136823F007030B431360136895
:1019D40003F00703994201D0012070472DE9F0413B
:1019E400036886B09A0706D55A4C8568626822F067
:1019F400F0022A436260DB0706460C4624D542689F
:101A0400544B012A1B6800F09280022A00F0878060
:101A1400980729D54F4D41F288386B6823F00303AA
:101A240013436B60FEF752FC73680746012B65D0C5
:101A3400022B05D16DE0FEF749FCC01B404572D86E
:101A44006B6813F00C0FF6D1414A136803F00703D7
:101A54009C420DD2136823F00703234313601368D9
:101A640003F007039C4203D0012006B0BDE8F081D7
:101A74003368590706D53749F0684A6822F4E062AA
:101A840002434A601A0707D5324A3169536823F47E
:101A9400605343EAC1035360012602252E4B06AF6F
:101AA4000FCB07E90F002B4C8DF804608DF805501F
:101AB400626802F00C03082B0AD1C2F383433B444F
:101AC40013F8101CD30336D4244B03FB01F300E0BA
:101AD400234B204A234852682349C2F30312825CF1
:101AE4000020D3400B60FEF7B1FB002006B0BDE838
:101AF400F081FEF7EBFBC01B404514D86B6803F084
:101B04000C03042BF5D19FE7FEF7E0FBC01B404517
:101B140009D86B6803F00C03082BF5D194E79D01F9
:101B24003FF578AFA0E7032006B0BDE8F0819F033E
:101B34003FF570AF98E76268094BC2F3404203FB7C
:101B440001F33A4412F8142CB3FBF2F3C1E700BFDB
:101B54000020024000100240E0A4000800093D00FB
:101B640000127A00B4AA00086C010020014B186826
:101B7400704700BF6C010020044B05495B68054AAF
:101B8400C3F30223CB5C1068D840704700100240B6
:101B9400C4AA00086C0100202DE9F0410446006845
:101BA40082B0C30727D53B4BDA69D7003BD53A4B04
:101BB40000251A68D60544D5364A136A13F44073CF
:101BC4000FD0616801F4407083420BD001270026D6
:101BD400136A324923F440700F600E60D907106213
:101BE40046D461682B4A136A23F440730B4313628F
:101BF400002D38D1206883070DD410F0100007D0D1
:101C04000020244A6169536823F480030B43536022
:101C140002B0BDE8F0811F4AA168536823F4404331
:101C24000B435360E9E7DA69012542F08052DA6137
:101C3400DB6903F080530193019B174B1A68D605A7
:101C4400BAD41A681E4642F480721A60FEF73EFB4C
:101C540007463368D805AFD4FEF738FBC01B6428A9
:101C6400F7D90320D4E7D36923F08053D361C1E7C4
:101C74001646FEF72BFB41F28837804605E0FEF757
:101C840025FBA0EB0800B842EBD8336A9A07F6D5D7
:101C9400A7E700BF00100240007000404004424229
:101CA4002DE9F0470D4686B0044690461F46FEF7E0
:101CB4000DFB002D35D0064694F83400C0B201283F
:101CC40007D00120A36B43F00053A36306B0BDE823
:101CD400F0870021E26D08EB07039342A1631BD850
:101CE4000323206884F83430636CC162012B4FF401
:101CF400007118BF4FEA482801F00CFB0346C0B13D
:101D040040F2FF550121226808469563A26B1343F4
:101D1400A36384F83410D9E7A36B43F00073A3637F
:101D2400D4E70120A36B43F00063A36306B0BDE8CE
:101D3400F0874FF0FF3190224FF0010A4FF0020973
:101D440004907B020091206869460292CDF80C90C1
:101D5400CDF814A0019301F0C9FA574536D9C4F857
:101D640030904146206801F04FFB0346002B35D1EB
:101D7400A94640F22A3A2068436B13EA0A0F436BE0
:101D840038D11A040DD5A9F1040509F11C0800E0A5
:101D9400206801F08DFA45F8040F4545F8D109F1A2
:101DA40020090E9B2BB1FEF791FA0E9B801B8342F8
:101DB400E1D840F2FF510122032023689963A36B09
:101DC40043F00043A36384F834207FE7C4F830A0D1
:101DD4004146206801F0DAFA0346C7E740F2FF55AE
:101DE4000122216810468D63A16B0B43A36384F821
:101DF40034206BE7DB050AD5012F08D9636C032B6C
:101E040005D001F0B9FB03460028E7D12068436BF5
:101E14001F071ED4436B9D0727D4436B99063DD4FB
:101E24000E9B5BB92DE001F043FA49F8040BFEF771
:101E34004DFA0E9B801B83422AD92068436B9A0279
:101E4400F1D440F2FF5201238263002084F834303D
:101E54003CE740F2FF5301228363A36B104643F037
:101E64000803A36384F8342030E740F2FF530122CF
:101E74008363A36B104643F00203A36384F8342006
:101E840024E7436B9B02DCD501F012FAC9F8000089
:101E9400012240F2FF51236810468FE740F2FF53BE
:101EA40001228363A36B104643F02003A36384F8E9
:101EB40034200BE72DE9F0430E4687B0044615465F
:101EC4009846FEF703FA002E42D094F83430DBB281
:101ED400012B08D00123A26B42F00052A2631846E2
:101EE40007B0BDE8F08307460020E16D05EB08026A
:101EF4008A42A06327D80322236884F83420626CC2
:101F04004FF40071012AD862184618BF6D0201F01F
:101F140001FA48B9B8F1010F5AD92023294623639D
:101F2400206801F0EBFAE0B1012240F2FF551346BC
:101F340021688D63A16B0843A063184684F834209C
:101F440007B0BDE8F083A26B42F00072A263C6E75B
:101F540001231846A26B42F00062A26307B0BDE8F9
:101F6400F0834FF0FF3190250122039004904FEA53
:101F7400482300912068694602950592019340F236
:101F84001A3901F0B3F92068436B13EA090F436B64
:101F940025D15D0409D53546203600E02068294660
:101FA400043501F089F9B542F8D10E9B2BB1FEF747
:101FB4008DF90E9BC01B8342E5D840F2FF500122ED
:101FC400216803238863A16BA16384F8342086E726
:101FD400102329462363206801F054FAA3E7D905A6
:101FE4000AD5B8F1010F07D9636C032B04D001F0B3
:101FF400C3FA002898D12068436B1A0712D4436BA4
:102004009B071BD4436B13F0100323D040F2FF5300
:1020140001218363A26B0B4642F01002A26384F891
:1020240034105CE740F2FF5301218363A26B0B463B
:1020340042F00802A26384F8341050E740F2FF53E0
:1020440001218363A26B0B4642F00202A26384F86F
:10205400341044E740F2FF510122816384F83420B4
:102064003DE700BFF0B50025436E9A0F0A70C3F335
:102074008367C3F30166C3F30744C3F30722DBB2E8
:102084004F708E70CC700A714B71836E1A0E1201F0
:10209400CA80CC88C3F30356A4B2C3F307223443E3
:1020A400C3F30346CC804FEAD21E0E72C2F300146F
:1020B400C2F38017C2F3401681F809E08F72CE7222
:1020C4000C734D73446C002C40F0868001244FF453
:1020D4000075920202F440620A610A699B0003F4EB
:1020E4007F7313430B610E69C36E46EA93760E61E8
:1020F400C3F3C267C3F30266DA0B0F7502F006027C
:102104004E75C3F34257C3F382468F75CE750A7674
:102114000A7EC3F3C03632430A760A690E7E22442D
:102124000236B24042650E7A0566B440650A02FB87
:1021340005F28465C265C3F30722002601253446EF
:1021440002FA05F707F07E07C2F380124A768F760B
:102154008A7EC3F3C0173A4303F07F038A76CB76B3
:10216400036FD80F9A0D0877C3F34177C3F38260E6
:1021740002F00C024F778877CA77CA7FC3F3815085
:102184000243CA77C3F34057C3F3004EC3F3C030CE
:10219400C3F3803281F8207081F82160C3F34037A3
:1021A40081F822E0C3F3003681F8230081F824206B
:1021B400C3F38120C3F30122C3F3460381F82570DE
:1021C40081F8266081F8270081F8282081F82930D9
:1021D40081F82A502046F0BD012C0DD0012240F296
:1021E400FF51144603689963836B43F08053836300
:1021F40080F834202046F0BD4FF400751B0403F42E
:102204007C130B61C36E0A691C0E42EA04220A6144
:102214000C69C3F3074222430A610C69C3F3072222
:10222400A40204F580644465C4658565056684E795
:10223400F0B5C3230025044601279BB00E930C95EB
:102244000D950CAAD0F800E007CA8DE8070009959F
:102254000A950B95714E09AB0ECB704601F00CF844
:102264003560206801F02EF802203760FEF734F85C
:102274002068089501F0F8F9014638B1012084F886
:102284003400A36B1943A1631BB0F0BD0590206813
:1022940001F016FA4FF6FF75C8B10599A164089BC1
:1022A4005A1CAB42089268D00021206801F042FA1F
:1022B400002865D10146206801F07AFA00285FD130
:1022C4000146206801F008F80028E8DA1CE0A76459
:1022D400089B5A1CAB4208924FD00021206801F0A1
:1022E40029FA01460028C9D14FF08041206801F045
:1022F4005FFA01460028C1D1206800F0EDFFC30F4A
:10230400E6D0420000F18780002363640123206843
:10231400ADF81E3000F0DCFF50B94FF080650123AA
:10232400184684F83430A36B2B43A3631BB0F0BD71
:10233400636C032B27D10421206800F0CDFF000D2E
:10234400E0640FA92046FFF78DFE226D00231204DE
:10235400206801F04BF905460028E0D1234653F8E4
:10236400106B043493E807008DE80700304694E8C6
:102374000E0000F081FF284686E74FF080717DE76C
:102384004FF080517AE7206801F048FA05460028AA
:10239400C5D10146206800F09FFF042160672068D2
:1023A40000F09AFF0821A067206800F095FF0C2137
:1023B400E067206800F090FF636CC4F88000032B92
:1023C400B9D00DF11E01206801F09CFA05460028E1
:1023D400A5D1636C032BAED0BDF81E102068216517
:1023E400090401F055FA0546002898D101462068F1
:1023F40000F072FF04216066206800F06DFF082180
:10240400A066206800F068FF0C21E066206800F0F8
:1024140063FF20678FE7636478E700BFA000304262
:10242400C0B190F8343010B503F0FF0204466BB12C
:102434000323204684F83430FFF7FAFE00230122F8
:10244400A3631846236384F8342010BD027706F092
:10245400F3FFEDE701207047F0B4436C876CC66C62
:10246400056D446D826D0B60C36D006E4F608E60B0
:10247400CD600C61C8614A610020F0BC8B6170477B
:10248400016D10B509040446006801F097FA01468D
:1024940020B1A36B00201943A16310BD206800F094
:1024A4001BFFC0F3432010BD2DE9F041044690F812
:1024B400500082B0012803D1022002B0BDE8F081AF
:1024C4001E46012384F850300D461746FDF7FEFEE4
:1024D400804694F85100C0B2012809D0022001229C
:1024E400002384F8512084F8503002B0BDE8F08114
:1024F400002DF4D0002FF2D000230321A26884F829
:102504005110B2F5004F63652563E786A786A36380
:10251400A38763642364E387226800F0128113684D
:102524005B0603D4136843F040031360E368B3F518
:10253400006F636800F0BA80002B00F0AE80E38E79
:102544009BB2012B00F0A980771C27D0002E41D02C
:10255400E38E9BB26BB19368980744D4FDF7B6FE43
:10256400A0EB080086423CD9E38E22689BB2002B84
:10257400F1D1771C40D193689D07FCD593681B0665
:10258400FCD4A3682BB90193D36801939368019396
:10259400019B606D003018BF0120A0E7E38E9BB261
:1025A400002BE6D093689907F8D515F8013B13730F
:1025B400E38E2268013B9BB2E386E38E9BB2002B41
:1025C400F0D1D6E715F8013B1373E38E2268013B83
:1025D4009BB2E386E38E9BB2002BCAD093689B0721
:1025E400F0D403207BE715F8013B1373E38E2268D4
:1025F400013B9BB2E386ABE79368980729D436B1D5
:10260400FDF764FEA0EB080086422268B1D8536847
:10261400616823F0E003B1F5827F536000F09E808F
:10262400A36AB3F5005F08D14DF6FF7113680B4040
:102634001360136843F4005313600123032084F8E8
:1026440051304CE7FDF742FEA0EB080086422268B9
:1026540004D99368190694D5002EF3D153686168A0
:1026640023F0E003B1F5827F536000F08480A36A15
:10267400B3F5005F08D14DF6FF7113680B4013608A
:10268400136843F4005313600120202284F851009E
:10269400636D13436365626521E715F8013B1373AA
:1026A400E38E2268013B9BB2E3864DE7002B4DD0BD
:1026B400E38E9BB2012B49D0771C15D0002E2ED06F
:1026C400E38E9BB2002B3FF454AF9368980730D449
:1026D400FDF7FCFDA0EB0800864282D9E38E226858
:1026E4009BB2002BF1D144E7E38E9BB2002B3FF465
:1026F40040AF93689907F7D535F8023BD360E38E72
:10270400013B9BB2E386E38E9BB2002BF1D130E711
:1027140035F8023BD360E38E013B9BB2E386E38E44
:102724009BB2002B3FF425AF93689B077FF559AF0D
:10273400EEE735F8023BD360E38E013B9BB2E386C0
:10274400BEE7136843F480431360E8E635F8023BC0
:10275400D360E38E013B9BB2E386ADE7A368B3F598
:10276400004F03D0B3F5806F7FF45AAF136823F0A2
:102774004003136054E7A368B3F5004F03D0B3F5E7
:10278400806F7FF474AF136823F0400313606EE727
:102794002DE9F041044690F8500082B0012803D19D
:1027A400022002B0BDE8F0819846012384F850303D
:1027B40015460E46FDF78AFD94F851200746D2B21D
:1027C400012A636811D0B3F5827F09D00220012267
:1027D400002384F8512084F8503002B0BDE8F08121
:1027E400A1680029F2D1042AF0D1002E58D0002D7E
:1027F40056D0B8F1000F53D094F851200021012A8B
:1028040004BF052284F8512022686165A4F83E8043
:10281400A4F836801068216461644106A563A4F8B5
:102824003C802663A4F8348003D4116841F040014D
:102834001160E168B1F5006F34D0002B54D0E38E01
:102844009BB2012B50D0089B013355D10121226842
:10285400E38E9BB21BB9E38F9BB2002B38D071B1CE
:10286400E38E9BB25BB193689F0708D50021337850
:1028740001361373E38E2268013B9BB2E386E38F38
:102884009BB2002BE4D09368D807E1D50121D3682B
:102894002B70E38F0D44013B9BB2E3872268D7E79B
:1028A400012094E7002B00F0DE80E38E9BB2012B25
:1028B40000F0D980089B013352D10121E38E9BB2F1
:1028C400002B40F0AF80E38F9BB2002B40F0AA8036
:1028D40093689D07FCD593681B06FCD4A068002868
:1028E40000F0F480002072E716F8013B1373E38EC6
:1028F400013B9BB2E386A6E74FF00108E38E9BB24F
:102904001BB9E38F9BB2002B35D0B8F1000F0FD069
:10291400E38E9BB263B123689A68910708D54FF0A0
:102924000008327801361A73E38E013B9BB2E386CA
:10293400E38F9BB263B123689A68D20708D54FF03E
:102944000108DB682B70E38F4544013B9BB2E387AE
:10295400FDF7BCFC089BC01B8342CFD8032036E79D
:102964004FF00108E38E9BB2002B40F08480E38F8C
:102974009BB2002B7FD1089B01332268A8D09368B7
:1029840098072AD4089B33B1FDF7A0FC089BC01B11
:102994008342F1D822685368616823F0E003B1F5FB
:1029A400827F536000F09980A36AB3F5005F08D179
:1029B4004DF6FF7113680B401360136843F4005322
:1029C40013600123032084F8513000E7FDF77EFCF7
:1029D400089BC01B8342226806D9936819067FF5B9
:1029E4007DAF089B002BF1D15368616823F0E003AD
:1029F400B1F5827F53607DD0A36AB3F5005F08D13F
:102A04004DF6FF7113680B401360136843F40053D1
:102A140013600120202284F85100636D1343636521
:102A24006265D4E669B1E38E9BB253B193689F07A4
:102A340007D5002136F8023BD360E38E013B9BB2FD
:102A4400E386E38F9BB2002B3FF438AF9368D8073B
:102A54007FF534AFD368012125F8023BE38F013BB6
:102A64009BB2E3872AE736F8023BD360E38E013B4F
:102A74009BB2E3861EE7B8F1000F0FD0E38E9BB242
:102A840063B123689A68910708D54FF0000836F8B7
:102A9400022BDA60E38E013B9BB2E386E38F9BB2A9
:102AA40063B123689A68D20708D54FF00108DB6840
:102AB40025F8023BE38F013B9BB2E387FDF706FC5D
:102AC400089BC01B83423FF64DAF47E70190D36894
:102AD400019393680193019B79E6A368B3F5004FD2
:102AE40003D0B3F5806F7FF45FAF136823F0400326
:102AF400136059E7A368B3F5004F03D0B3F5806FB3
:102B04007FF47AAF136823F04003136074E700BFC7
:102B1400F8B590F85030012B0DD00123044690F8FD
:102B2400510084F85030C0B2984206D002200023ED
:102B340084F85030F8BD0220F8BD0029F7D0002AEF
:102B4400F5D000230325A06884F85150B0F5004F58
:102B54006365A286E2862163A36363642364A38717
:102B6400E38722681FD00023A06C114F4363114EEA
:102B7400E38E114D0C329BB2C76286620563FDF78A
:102B840087FC23681A68520603D41A6842F040028C
:102B94001A605A68002042F020025A605A6842F0D3
:102BA40002025A60C3E7136843F480431360DAE710
:102BB400C92B0008FD2B0008D92B0008704700BF63
:102BC400704700BF08B5406AFFF7FAFF08BD00BFB1
:102BD400704700BF10B50124436A196818464A6853
:102BE40022F003024A605A6D42F010025A6583F8DB
:102BF4005140FFF7EDFF10BD70B5064682B0446A40
:102C0400FDF764FB33681B68990617D405462368EF
:102C14005A6822F002025A609A68120613D4A26813
:102C24002AB90192DA6801929B680193019B0123FE
:102C34000022E28684F85130636D5BB92046FFF7C9
:102C4400BDFF02B070BDFDF741FB401B632806D8F1
:102C54002368E1E72046FFF7BBFF02B070BD23689D
:102C640061685A68B1F5827F22F0E0025A60A26876
:102C74001DD0A16AB1F5005F08D14DF6FF70196847
:102C840001401960196841F40051196001210020C4
:102C940084F85110616D84F8500041F020016165A1
:102CA400616D41F020016165002AC0D1B9E7B2F538
:102CB400004F02D0B2F5806FDBD1196821F04001DA
:102CC4001960D6E700283AD0F8B5002390F85120CF
:102CD40004468362002A2ED01A46022700210125C9
:102CE400A6686368E0683343266903436069334335
:102CF400E66903433343206AA66984F85170276860
:102D0400034306F40070034338681343360C20F081
:102D14004002606A06F004060643E06A3A603B60DB
:102D24007E603861FB69084623F40063FB616165DA
:102D340084F85150F8BD06F0D1FBA26ACDE701201A
:102D4400704700BF002864D038B590F83D30044681
:102D540003F0FF0293B3022322682F4984F83D3025
:102D64008A4213682FD001F500618A423FD0B2F144
:102D7400804F1AD0A1F598318A4216D001F58061AE
:102D84008A4212D001F580618A420ED0A569E068BA
:102D9400616823F080032B431360D06291620123A6
:102DA4000020536184F83D3038BDA16823F07003DE
:102DB4000B43216923F440730B43E7E780F83C207D
:102DC40006F078FCC7E7A16823F070030B43216980
:102DD40023F440730B43A16923F080030B43136076
:102DE400E368D3626368936263691363D7E7A16896
:102DF40023F070030B43216923F44073A5690B434B
:102E0400E068616823F080032B431360D062916211
:102E1400EAE70120704700BF002C0140034602206E
:102E240041F211111A6883F83D00106A084208D172
:102E340040F24441106A084203D1116821F00101B3
:102E440011600122002083F83D20704703680020B0
:102E5400DA6842F00102DA601A6842F001021A608C
:102E6400704700BF90F83C30012B40D00222F0B4F0
:102E74000125036880F83D209A680C6822F47F429B
:102E840022F07702402C80F83C509A6073D018D915
:102E9400702C60D02DD9B4F5805F57D0B4F5005FA5
:102EA4001CD18A684D68CC6899682A4342EA042296
:102EB40021F47F410A439A609A6842F480429A60FE
:102EC4000CE0102C32D038D9202C6CD0302C05D109
:102ED4009A6822F0700242F037029A600023F0BC34
:102EE400012280F83C3080F83D20184670470220CB
:102EF4007047502C5ED0602CF0D11C6A4D6824F0D1
:102F04001004CE681C6299691A6A21F4704122F097
:102F1400A00242EA051241EA063199611A629A68EE
:102F240022F0700242F067029A60D7E79A6822F0B2
:102F3400700242F017029A60D0E7002CCED19A6852
:102F440022F0700242F007029A60C7E79A6822F002
:102F540007029A60C2E78A684D68CC6899682A4378
:102F640042EA042221F47F410A439A609A6842F0BB
:102F740077029A60B2E71D6A1E6A4C6826F0010661
:102F8400CF681E629A6925F00A0122F0F00242EA33
:102F9400071221439A6119629A6822F0700242F082
:102FA40047029A609AE79A6822F0700242F0270278
:102FB4009A6093E71D6A1E6A4C6826F00106CF6882
:102FC4001E629A6925F00A0122F0F00242EA071211
:102FD40021439A6119629A6822F0700242F0570202
:102FE4009A607BE7704700BF704700BF704700BF1F
:102FF400704700BF036810B51A690446910702D5EB
:10300400DA68920762D41A69500702D5DA68510760
:1030140049D41A69120702D5DA68100731D41A693B
:10302400D20602D5DA68D00618D41A69D10702D5B7
:10303400DA68D2076BD41A69100602D5DA68110669
:103044006DD41A69520602D5DA68500657D41A6943
:10305400910602D5DA68920649D410BD6FF01001CA
:1030640008221961DB69204613F4407F227761D17D
:10307400FFF7B8FF2046FFF7B9FF00222368227745
:10308400D3E76FF0080104221961DB692046990730
:10309400227755D1FFF7A6FF2046FFF7A7FF0022AE
:1030A40023682277BBE76FF00401022219619B6950
:1030B400204613F4407F22773FD1FFF793FF204649
:1030C400FFF794FF002223682277A2E76FF0020142
:1030D400012219619B6902779B0728D1FFF782FFC0
:1030E4002046FFF783FF0022236822778BE76FF0E7
:1030F40020022046BDE810401A6100F04BB86FF082
:10310400400220461A61FFF773FF23689FE76FF0C0
:10311400010220461A6105F0CDFA23688BE76FF0AF
:10312400800220461A6100F037F8236889E7FFF728
:103134005BFFD8E7FFF758FF9FE7FFF755FFC1E7AD
:10314400FFF752FFABE700BF90F83C30012B1FD0D4
:1031540002460220F0B500250126136882F83D00DE
:103164005C68D1F800E024F070045C6058684F6833
:1031740040EA0E0058609C68284624F080049C6055
:1031840099683943996082F83D6082F83C50F0BDFB
:1031940002207047704700BF704700BF40F2FF51E4
:1031A400002282B000F11403816301920193019B18
:1031B40030481B68184020B1934204DB590006D5FF
:1031C400402002B070474FF0007002B070479A0080
:1031D40001D58020F5E7D90002D54FF48070F0E7DF
:1031E4001A0102D54FF40070EBE7590102D54FF4F0
:1031F4008060E6E7DA0102D54FF40060E1E71902E6
:1032040002D54FF48050DCE75A0202D54FF4005047
:10321400D7E7990202D54FF48040D2E7DA0202D50B
:103224004FF40040CDE7590302D54FF40030C8E70E
:103234009A0302D54FF48020C3E7D90302D54FF493
:103244000020BEE71A0402D54FF48010B9E75904F0
:1032540002D54FF40010B4E79A0402D54FF480006D
:10326400AFE713F0080F14BF4FF400004FF48030A1
:10327400A7E700BF08E0FFFD84B010B402AC84E807
:103284000E000B460399049A0B430599069C1343BD
:1032940042680B430799234322F4FD420B4322F077
:1032A4007F0210BC1343436004B00020704700BF8A
:1032B400D0F88000704700BF03460A680020C3F8B6
:1032C400802070470346032200201A60704700BF25
:1032D400006800F0030070470023143082B00144FA
:1032E40001930191019B186802B0704730B40C68D7
:1032F4000A1D2CCA44620C698262C26A2B43496962
:10330400234322F0F7020B431343C36230BC002073
:10331400704700BF41F288331A4A10B412681A4C3D
:103324008160A4FB0221C268490A22F47F6222F070
:103334000F0242F48A6203FB01F3C26003E0426BB2
:1033440012F0450F06D113F1FF33F8D24FF00040CD
:1033540010BC7047436B5A0704D5042310BC836325
:1033640018467047436BDB0705D40369DBB2102BA7
:1033740005D00120ECE7012383631846E8E710BC7D
:10338400FFF70CBF6C010020D34D621041F288336B
:103394001B4A10B412681B4C8160A4FB0221C26852
:1033A400490A22F47F6222F00F0242F48A6242F058
:1033B400010203FB01F3C26003E0426B12F0450F0C
:1033C40006D113F1FF33F8D24FF0004010BC704720
:1033D400436B5A0704D5042310BC83631846704713
:1033E400436BDB0705D40369DBB2112B05D0012045
:1033F400ECE7012383631846E8E710BCFFF7CEBE71
:103404006C010020D34D621041F288331B4A10B482
:1034140012681B4C8160A4FB0221C268490A22F491
:103424007F6222F00F0242F48A6242F0020203FB3E
:1034340001F3C26003E0426B12F0450F06D113F1B1
:10344400FF33F8D24FF0004010BC7047436B5A076B
:1034540004D5042310BC836318467047436BDB0711
:1034640005D40369DBB2122B05D00120ECE701235C
:1034740083631846E8E710BCFFF790BE6C01002098
:10348400D34D621041F288331A4A10B412681A4CB0
:103494008160A4FB0221C268490A22F47F6222F0FF
:1034A4000F0242F48B6203FB01F3C26003E0426B40
:1034B40012F0450F06D113F1FF33F8D24FF000405C
:1034C40010BC7047436B5A0704D5042310BC8363B4
:1034D40018467047436BDB0705D40369DBB2182B2E
:1034E40005D00120ECE7012383631846E8E710BC0C
:1034F400FFF754BE6C010020D34D621041F28833B3
:103504001B4A10B412681B4C8160A4FB0221C268E0
:10351400490A22F47F6222F00F0242F48B6242F0E5
:10352400010203FB01F3C26003E0426B12F0450F9A
:1035340006D113F1FF33F8D24FF0004010BC7047AE
:10354400436B5A0704D5042310BC836318467047A1
:10355400436BDB0705D40369DBB2192B05D00120CB
:10356400ECE7012383631846E8E710BCFFF716BEB7
:103574006C010020D34D621000221949194B0968CF
:103584008260A3FB0131C268174B22F47F62490AAF
:1035940022F00F0203FB01F342F4896242F00402B9
:1035A400C2605BB1426B013B12F0450FF9D0436B33
:1035B4005A0706D504238363184670474FF000402A
:1035C4007047436BDB0705D40369DBB20C2B05D0D2
:1035D400012070470123836318467047FFF7DEBD5F
:1035E4006C010020D34D621000E1F50541F28833EF
:1035F4001B4910B409681B4C8260A4FB0121C268FA
:10360400490A22F47F6222F00F0242F4886242F0F7
:10361400070203FB01F3C26003E0426B12F0450FA3
:1036240006D113F1FF33F8D24FF0004010BC7047BD
:10363400436B5A0704D5042310BC836318467047B0
:10364400436BDB0705D40369DBB2072B05D00120EC
:10365400ECE7012383631846E8E710BCFFF79EBD3F
:103664006C010020D34D6210014610B4002441F2D5
:1036740088331148114A00688C60A2FB0020CA6894
:10368400400A22F47F6222F00F0242F4806203FBBC
:1036940000F3CA6002E04A6B120606D413F1FF334A
:1036A400F9D24FF0004010BC704740F2FF530020A5
:1036B4008B6310BC704700BF6C010020D34D6210B7
:1036C400014610B44FF4D57441F288331748184AB0
:1036D40000688C60A2FB0020CA68400A22F47F6262
:1036E40022F00F0242F4896203FB00F3CA6003E094
:1036F4004A6B12F0450F06D113F1FF33F8D24FF0A5
:10370400004010BC7047486B10F0040004D0402304
:1037140004208B6310BC70474B6B13F0400302D042
:1037240040238B63EDE71846EBE700BF6C010020F4
:10373400D34D621041F288331B4A10B412681B4CFB
:103744008160A4FB0221C268490A22F47F6222F04C
:103754000F0242F48E6242F0070203FB01F3C260DF
:1037640003E0426B12F0450F06D113F1FF33F8D298
:103774004FF0004010BC7047436B5A0704D5042334
:1037840010BC836318467047436BDB0705D4036999
:10379400DBB2372B05D00120ECE701238363184605
:1037A400E8E710BCFFF7FABC6C010020D34D6210AF
:1037B40030B4044641F28833164A41F0004012689E
:1037C400154D40F48010A060A5FB0221E268490A6F
:1037D40022F47F6222F00F0242F48D6242F0010271
:1037E40003FB01F3E26003E0626B12F0450F06D1C4
:1037F40013F1FF33F8D24FF0004030BC7047606BD8
:1038040010F0040015BF042040F2FF53A063A3632B
:1038140030BC70476C010020D34D6210014610B4D7
:10382400002441F288331848184A00688C60A2FBCF
:103834000020CA68400A22F47F6222F00F0242F498
:10384400986242F0020203FB00F3CA6003E04A6B91
:1038540012F0450F06D113F1FF33F8D24FF00040B8
:1038640010BC70474B6B5B0703D50420886310BC06
:103874007047486B10BC10F0010015BF012040F2E6
:10388400FF5388638B6370476C010020D34D621033
:1038940010B4044641F28833184A19481268A160EA
:1038A400A0FB0221E268490A22F47F6222F00F029F
:1038B40042F4996242F0010203FB01F3E26003E087
:1038C400626B12F0450F06D113F1FF33F8D24FF0BB
:1038D400004010BC7047636B5B0703D50420A063F2
:1038E40010BC7047606B10F0010015BF012040F25E
:1038F400FF53A063A36310BC704700BF6C0100209A
:10390400D34D621030B4002541F28833294C2A4A41
:1039140024688560A2FB0424C268640A22F47F62DE
:1039240022F00F0242F4886242F0030282B003FBE9
:1039340004F3C26003E0426B12F0450F07D113F1A8
:10394400FF33F8D24FF0004002B030BC7047436BF5
:103954005C0705D504238363184602B030BC704766
:10396400436B13F0010305D10269D2B2032A05D0D7
:103974000120E9E7012383631846E5E740F2FF5499
:1039840000F11402846301930192019B1B6813F4F8
:10399400604004D05A0405D54FF40050D4E71B0C02
:1039A4000B80D1E713F4004F14BF4FF480504FF451
:1039B4008030C9E76C010020D34D621041F2883396
:1039C4001B4A10B412681B4C8160A4FB0221C2681C
:1039D400490A22F47F6222F00F0242F4896242F023
:1039E400050203FB01F3C26003E0426B12F0450FD2
:1039F40006D113F1FF33F8D24FF0004010BC7047EA
:103A0400436B5A0704D5042310BC836318467047DC
:103A1400436BDB0705D40369DBB20D2B05D0012012
:103A2400ECE7012383631846E8E710BCFFF7B6BB55
:103A34006C010020D34D621084B001A880E80E0010
:103A440004B00020704700BF0246B0F840300020A8
:103A54009BB243F43F43A2F84030704744F2FF2343
:103A64000246B0F8401000200B40A2F840307047E6
:103A74000020704784B070B4044601250020A4F8E7
:103A84004050A4F84000A4F84400A4F85000B4F84E
:103A9400405004AEADB245F43F45A4F8405086E82A
:103AA4000E0070BC04B07047CB7870B4032B10D8F0
:103AB400DFE813F06701590104004B010A7830F87C
:103AC400223023F4EC4323F070031B041B0C20F876
:103AD400223040F60F740A7830F8223042F4004560
:103AE400234045F080052B4320F822308B7A002BAD
:103AF40034D14B78002B00F0E080B0F850300D78D2
:103B04008A889BB203EBC503520800EB43035200BF
:103B1400C3F800240D7830F8253000EB85025B06ED
:103B24000BD530F825301C4044F4004444F0C00464
:103B340020F825400A7800EB82021388002070BC2C
:103B440023F4E04323F040031B041B0C83F0200305
:103B540043F4004343F080031380704740F60F633F
:103B64000A7800F5806530F82260334043F401435D
:103B740043F0800320F82230B0F85020CE880B7830
:103B840092B2760802EBC3027600B0F8503045F8E2
:103B940012600A890E789BB20433520803EBC60301
:103BA400520045F813204B78002B49D10B7830F89C
:103BB400235000EB83026D040BD530F8232014400E
:103BC40044F4404444F0800420F823400A7800EB95
:103BD400820213885E060BD540F60F7314882340C7
:103BE40043F4004343F0C00313800A7800EB8202DD
:103BF40040F60F7448F2800513881C4044F40044D6
:103C040044F0C00414800A7830F8223023F480434E
:103C140023F070031B041B0C83F440532B4320F844
:103C240022300A7830F8223023F4E04323F04003B2
:103C34001B041B0C2B4320F8223070BC002070475F
:103C44000B7830F8235000EB83026D040BD530F869
:103C54002320144044F4404444F0800420F82340DA
:103C64000A7800EB820213885B0600F1988040F624
:103C74000F7448F2800513881C4044F4404444F017
:103C8400800414800A7830F8223023F4E04323F0CF
:103C940040031B041B0C2B4320F822300A7830F815
:103CA400223023F4804323F070031B041B0C2B43AA
:103CB40020F8223070BC00207047B0F850208C8867
:103CC4000B7892B20432640802EBC302640000F57C
:103CD4008065B0F8503045F812400A690C789BB200
:103CE40006333E2A03EBC40366D8C2F34F04D2075B
:103CF40044BF0134A4B2A402A4B245F813400C7822
:103D040030F8243000EB84025E040DD540F60F73C6
:103D140030F82420134043F4404343F0800320F858
:103D240024300A7800EB82021388002070BC23F44C
:103D3400804323F070031B041B0C83F4405343F4AF
:103D4400004343F08003138070470A7830F8223030
:103D540023F4EC4323F070031B041B0C43F4C063F3
:103D640020F82230B5E60A7830F8223023F4EC4308
:103D740023F070031B041B0C43F4806320F82230EF
:103D8400A7E60A7830F8223023F4EC4323F07003DA
:103D94001B041B0C43F4007320F8223099E640F610
:103DA4000F731488234043F4004343F0C00313808B
:103DB4000A7800EB82025AE7C2F34F14D60604BF16
:103DC40004F1FF3294B2034A42EA842292B245F8E3
:103DD400132094E70080FFFF8B7A30B43BBB4B7811
:103DE4000C78002B00F0AE8030F8243000EB840215
:103DF4005B060DD540F60F7330F82420134043F4CE
:103E0400004343F0C00320F824300A7800EB820218
:103E1400138823F4E04323F040031B041B0C43F4F6
:103E2400004343F08003002030BC138070474B787C
:103E3400002B49D10B7830F8234000EB8302640453
:103E44000DD540F60F7230F82340224042F4404230
:103E540042F0800220F823200A7800EB82021388C3
:103E64005D060BD540F60F731488234043F40043DA
:103E740043F0C00313800A7800EB820240F60F740B
:103E840048F2800513881C4044F4004444F0C00404
:103E940014800A7830F8223023F4804323F070032E
:103EA4001B041B0C2B4320F822300A7830F82230F4
:103EB40023F4E04323F040031B041B0C2B4320F8A2
:103EC400223030BC002070470B7830F8234000EBE0
:103ED400830264040DD540F60F7230F8234022406B
:103EE40042F4404242F0800220F823200A7800EB9A
:103EF400820213885B063FD440F60F7448F28005B3
:103F040013881C4044F4404444F0800414800A782C
:103F140030F8223023F4E04323F040031B041B0C4D
:103F24002B4320F822300A7830F8223023F48043DF
:103F340023F070031B041B0C2B4320F8223030BCED
:103F44000020704730F8243000EB84025D040DD566
:103F540040F60F7330F82420134043F4404343F0F9
:103F6400800320F824300A7800EB8202138823F4BB
:103F7400804323F0700350E740F60F731488234006
:103F840043F4004343F0C00313800A7800EB820239
:103F9400B2E700BF4A78F0B5012A8B695DD00C699D
:103FA400A34292BF00251D1B23468C7A8D615CBB06
:103FB400B0F850200C7892B206323E2B02EBC402C9
:103FC40000F5806540F28480C3F34F14DE0604BF1D
:103FD40004F1FF339CB2734B43EA84239BB245F84C
:103FE40012300A7830F8223023F4804323F070032F
:103FF4001B041B0C83F4405343F4004343F080033D
:1040040020F822300020F0BD002AEAD1B0F8502078
:104014000C7892B202323E2B02EBC40200F58065AA
:1040240040F28E80C3F34F16DF0604BF06F1FF345F
:10403400A6B25C4C44EA8624A4B245F812404A78FD
:10404400002A40F08B80B0F850300A789BB20633D7
:1040540003EBC20345F81340C3E70A69934292BFD6
:1040640000249C1A13468A7A8C61002A3BD00C786F
:1040740000F5806630F8242012F0400FB0F850208C
:1040840092B278D0023202EBC4020C8946F81230A4
:104094009BB201335B1006EB440618BF00224C6947
:1040A40006D034F8025B26F8225001329A42F8D145
:1040B4004B78002B66D140F60F730A7830F8224013
:1040C400234043F4004343F0C00320F8223024E0AB
:1040D400C3F34F04DB0744BF0134A4B2A402A4B267
:1040E40045F812407DE79EB28F88013600F5806E58
:1040F40076100EEB47074C6906D034F8025B27F8BC
:10410400225001329642F8D1B0F850200C7892B285
:10411400023202EBC4024EF812300A7830F8223030
:1041240023F4E04323F040031B041B0C83F030030F
:1041340043F4004343F0800320F822300020F0BD14
:10414400C3F34F04DE0744BF0134A4B2A402A4B2F3
:1041540045F812404A78002A3FF475AF012A7FF4EB
:1041640040AFB0F850200C7892B2023202EBC40295
:1041740045F8123035E702EBC4020232CC8846F827
:10418400123085E7012BC8D140F60F730A7830F856
:104194002240234043F4404343F0800320F822307C
:1041A400BBE700BF0080FFFF0A782AB34B788BB9C6
:1041B40030F8223023F4804323F070031B041B0CDB
:1041C40083F4805343F4004343F0800320F8223007
:1041D4000020704730F8223023F4E04323F04003FA
:1041E4001B041B0C83F0100343F4004343F08003CF
:1041F40020F8223000207047038823F4804323F002
:1042040040031B041B0C83F4805383F0100343F41A
:10421400004343F080030380002070474B7810B4C0
:104224002BB30C7830F8243000EB84025B060DD5F8
:1042340040F60F7330F82420134043F4004343F056
:10424400C00320F824300A7800EB8202138800208F
:1042540023F4E04323F040031B041B0C83F03003DE
:1042640043F4004343F08003138010BC70470B7881
:1042740030F8234000EB830264040DD540F60F723E
:1042840030F82340224042F4404242F0800220F8B9
:1042940023200A7800EB82021388002023F4804351
:1042A40023F070031B041B0C83F4405343F40043BA
:1042B40043F08003138010BC704700BF11B9802302
:1042C400A0F84C3000207047002070470020704751
:1042D400B0F8440080B2704700207047013300F505
:1042E40080605B1000EB420209D030B4002431F846
:1042F400025B22F824500134A342F8D130BC704749
:10430400013300F580605B1000EB420205D052F8E7
:10431400040B013B21F8020BF9D17047D0F8183295
:104324001BB10020C3F8140270470220704700BF7D
:10433400D0F81C3210B5D0F818425BB194F80002E2
:10434400FF2807D09B6894F8012221469847FF2351
:1043540084F80032002010BD4323038000487047D6
:104364000800002043230380004870474C000020CD
:104374004323038000487047900000200A230380F1
:1043840000487047D400002038B50446D0F81852CD
:1043940005F094FBD4F81832C5F80C024BB1D4F8EC
:1043A4001C3205F50371DB68D5F804029847002038
:1043B40038BD022038BD00BFF8B50B780C4613F0A9
:1043C400600213D0202A0FD1CE88054626B31B06DF
:1043D400D0F8187213D44B78324687F8003287F835
:1043E4000162394600F024FC0020F8BD4B780A2B0A
:1043F400FAD101220C4900F005FC0020F8BDD0F8E8
:104404001C32324639469B6860789847E2883946C0
:10441400284600F0F7FBE7E7D0F81C3232469B68E9
:1044240048789847E0E700BF3402002010B50446FE
:10443400812105F0DFFA0121204605F0DBFA204650
:10444400822105F0D7FAD4F8183253B1D4F81C32CB
:104454005B689847D4F8180205F03AFB0023C4F8C7
:104464001832002010BD00BFF8B5037C044673BBAE
:104474004FF400730222812105F0ACFA4FF400736B
:1044840002220121204605F0A5FA082303228221F5
:10449400204605F09FFA4FF4077005F015FB05461A
:1044A400C4F8180230B30026D4F81C321B689847AD
:1044B400277CD5F80422C5F814622046C5F8186292
:1044C4008FB14023012105F0EBFA3046F8BD4023BB
:1044D4000222812105F07EFA402302220121204696
:1044E40005F078FAD1E74FF40073012105F0D8FA0A
:1044F4003846F8BD0120F8BD19B1C0F81C120020DF
:1045040070470220704700BFD0F818320020C3F86B
:104514000812C3F810227047D0F818320020C3F8EC
:1045240004127047D0F818228AB110B5D2F8144298
:104534000CB1012010BD0121B2F81032C2F81412DE
:10454400D2F80822812105F09DFA204610BD0220F0
:10455400704700BFD0F818228AB110B5047CD2F895
:1045640004222CB14023012105F09AFA002010BD49
:104574004FF40073012105F093FA204610BD022088
:10458400704700BF88B108B5D0F8143213B10023C6
:10459400C0F8143209B1C0F810120123027080F877
:1045A400FC3105F0C1F9002008BD0220704700BFAE
:1045B40019B1C0F81412002070470220704700BFE0
:1045C40008B505F0F9F9002008BD00BF08B5D0F81A
:1045D400143213B11B68984708B1022008BD08BD06
:1045E40008B5D0F814325B689847002008BD00BFB6
:1045F40038B5044600F50275284600F0C9FA0120D2
:1046040094F80812B4F80E2201F01F038342C4F890
:10461400F401C4F8F82115D00ED3022B06D001F012
:104624008001204605F0F4F9002038BD29462046D3
:1046340000F046FA002038BD2946204600F0D4F8A0
:10464400002038BD2946204600F01CFA002038BD61
:1046540010B5044631B91346D0F8F421032A0CD01E
:10466400002010BDD0F814329B69002BF8D090F8CC
:10467400FC21032AF4D19847F2E7D0F80C11D0F8C2
:10468400102191420CD8D0F814321B691BB190F858
:10469400FC21032A0FD0204600F0E2FA002010BDCE
:1046A400891A8A4228BF0A46C0F80C1192B21946E8
:1046B40000F0CEFAD4E79847EDE700BF70B50446A2
:1046C40051B91346D0F8F421022A15D094F80032D7
:1046D400012B0CD0002070BDD0F814325B69002B84
:1046E400F8D090F8FC21032AF4D19847F2E700238C
:1046F40084F80032002070BDC669026A964223D84D
:104704008369B3FBF2F502FB15358DB99A420FD8D4
:10471400D0F8F82193420BD22A4600F081FAC4F86B
:10472400F8512B462A462946204605F0B9F9CDE72B
:10473400D4F81432DB681BB194F8FC21032A0BD0A3
:10474400204600F099FAC1E7B21A0D46C261194633
:1047540092B200F065FAE4E720469847F0E700BF1C
:1047640038B500224025044611462B4605F032F99F
:104774002B460022C4F810512046802105F02AF966
:104784000122D4F81832256284F8FC212BB1D4F824
:10479400143221795B6820469847002038BD00BF59
:1047A40001740020704700BF0346042290F8FC11F6
:1047B400002083F8FD1183F8FC217047034690F82C
:1047C400FD21002083F8FC21704700BF90F8FC21F4
:1047D400032A01D00020704708B5D0F81432DB69F1
:1047E40003B19847002008BD30B54B7883B00D461F
:1047F4000446092B0BD8DFE803F035480A580A05AC
:10480400650A7B158B8813B9CB88002B7DD080215A
:10481400204605F0FDF82046002105F0F9F80020B7
:1048240003B030BD8978964D01292970EFD890F8EE
:10483400FC31022B00F08780032BE8D1002900F023
:1048440014814168012909D0C9B2FFF7C9FE29784A
:1048540020466160FFF7BAFE0228D8D0204600F057
:10486400FFF9DCE7012290F8FC310321023B93427B
:10487400CDD8D0F80432C26003B1C160022204F181
:104884000C01204600F0BEF9C9E790F8FC31023B68
:10489400012BBCD84B88012BC1D10022D0F8143293
:1048A400C0F804229B689847D8E74B88012BB6D1FF
:1048B400D0F81422C0F8043293689847204600F0D8
:1048C400CFF9ACE74A88130A013B062B9FD801A114
:1048D40051F823F0BB490008DD490008CB49000822
:1048E4001348000813480008A54900086549000852
:1048F400CA88012A8BD190F8FC31022B1CD0032BDF
:1049040085D1011D00F07EF989E790F8FC318D789E
:10491400032B05F07F053FF47AAF80F8FE5129465A
:1049240005F0A2F8204600F09BF9002D00F09080DD
:10493400022384F8FC3172E70023014641F8083F62
:1049440000F060F96BE7002988D00121032341605E
:1049540080F8FC31FFF73AFE02287FF47FAF56E778
:10496400037C002B7FF453AFD0F814320DF1060012
:104974001B6B984707234370BDF80630002B3FF4A8
:104984004EAFEA88002A3FF44AAF934228BF134649
:1049940001461A462046ADF8063000F033F93EE7EA
:1049A400037C002B7FF433AFD0F814320DF10600F2
:1049B4005B6B9847E0E7D0F810320DF106011B68F5
:1049C400007C9847D8E7D2B2052A3FF620AFDFE84B
:1049D40002F0271F170F372F037C002B3CD1D0F890
:1049E40014320DF106009B6A984702234370C3E713
:1049F400D0F810320DF106011B69007C9847BBE723
:104A0400D0F810320DF10601DB68007C9847B3E75B
:104A1400D0F810320DF106019B68007C9847ABE793
:104A2400D0F810320DF106015B68007C9847A3E7CB
:104A3400D0F810320DF106019B69007C98479BE782
:104A4400D0F810320DF106015B69007C984793E7BA
:104A5400012384F8FC31E2E6D0F814320DF10600AB
:104A6400DB6A98470223437086E70223416080F89B
:104A7400FC31FFF7B5FD204600F0F2F8CFE600BFA9
:104A84003502002038B590F8FC310446032B03D1DD
:104A94000B790D46012B08D9802104F0B9FF20467B
:104AA400002104F0B5FF002038BDD0F814329B6813
:104AB4009847EB88002BF6D1204600F0D1F8F2E7B6
:104AC40070B50B788A8803F06003202B054659D013
:104AD4004B780C46012BD6B236D019D3032B15D103
:104AE40090F8FC31022B33D0032B42D14B8823B9ED
:104AF400730602D0314604F08BFFD5F814322146F8
:104B04009B6828469847284600F0AAF8002070BD04
:104B140090F8FC31022B1BD0032B2AD106F07F0422
:104B240000EB0414130631464CBF143404F58274AC
:104B340004F08AFF003018BF0120214620600222C1
:104B4400284600F05FF8E1E790F8FC31022B05D12C
:104B54007206DBD0314604F05BFFD7E7032B08D1A4
:104B64004B88002BD2D17106CDD0314604F05EFFC4
:104B7400C3E7802104F04CFF2846002104F048FFDD
:104B8400002070BDD0F814329B689847BEE700BF80
:104B94000B7803704B784370CA788B7803EB02234D
:104BA40043804A790B7903EB02238380CA798B799A
:104BB40003EB0223C380704700B3037830B4F3B12E
:104BC4000446002314F8015F0133DBB2002DF9D150
:104BD4005B000233DCB2032513800C704D70047843
:104BE4005CB1022300255A1CD2B2CC548D5410F867
:104BF400014F0233DBB2002CF5D130BC70470224E4
:104C04002346E8E738B5134602250A468361C361A3
:104C1400C0F8F451002104F035FF002038BD00BF76
:104C240008B513460A46002104F02CFF002008BDF5
:104C340038B5134603250A46C0F80831C0F80C31CC
:104C4400C0F8F451002104F02BFF002038BD00BF50
:104C540008B513460A46002104F022FF002008BDCF
:104C640008B504220023C0F8F42119461A4604F0BA
:104C740009FF002008BD00BF08B505220023C0F8C5
:104C8400F42119461A4604F00BFF002008BD00BFAA
:104C9400034B03EB8002526803445268187A1047AE
:104CA40058020020064B1A5C0AB10020704701210B
:104CB40003EB80025268195403441268187A1047AF
:104CC4005802002030B4054C04EB80056D680444A0
:104CD400AD68207AAC4630BC604700BF5802002063
:104CE40030B4054C04EB80056D680444ED68207A0B
:104CF400AC4630BC604700BF58020020054B10B4DE
:104D040003EB8004646803442469187A234610BCC6
:104D1400184700BF5802002070B5D0F82C52044642
:104D240001462A4690F801020123FFF7D9FFE0B9B2
:104D3400D4F82022D4F81832AA1A9A4284F8040229
:104D440011D294F80362012E02D80CE0D4F8183280
:104D54001D44013E2A460123214694F80102FFF72F
:104D6400BFFF012EF2D1002070BD012070BD00BF35
:104D7400F8B5D0F82C528D423AD090F8043204465B
:104D84000E467BB932460123214694F80102FFF70F
:104D940099FF00281ABF4FF0FF3601200020C4F805
:104DA4002C62F8BD014601232A4690F80102FFF760
:104DB40097FFD8B9D4F82022D4F81832AA1A9A4204
:104DC40084F80402DED294F80372012F02D8D9E7E2
:104DD400D4F818321D44013F2A460123214694F891
:104DE4000102FFF77DFF012FF2D1CBE70120F8BDCF
:104DF4000020F8BD0023F0B50E6885B00360002ED6
:104E04003BD03778202F0AD93A2F36D0334602E0E8
:104E14003A2C1ED02B465C785D1C202CF8D8C64E4C
:104E240034680CB3046094F8003215462BB194F83E
:104E34000102FFF72DFFC70719D5002084F80002EF
:104E440084F80102FFF72EFFC10719D5032005B02E
:104E5400F0BD0136B54210D1302F0ED1B64E02331B
:104E640034680B60002CDDD10C2005B0F0BD55B3C7
:104E740010F00400EBD00A20E9E70B2005B0F0BDE8
:104E84000DB14207F7D400224FF0FF3584F8042215
:104E9400C4F82C520123214694F80102FFF712FFB3
:104EA40068B94AF6552294F8FF1194F8FE31C4F813
:104EB4002C0243EA0123934207D00D20C7E7C4F82C
:104EC4002C520120C3E72846C1E7D4F836309B4969
:104ED40023F07F428A4200F0B581D4F8522022F0B8
:104EE4007F428A4200F0AE8194F8C2510DB1D4F8E9
:104EF400C65194F8D2210AB1D4F8D62194F8E2111B
:104F0400019209B1D4F8E61194F8F22102910AB1A0
:104F1400D4F8F6210392002D40F0DF80019D002D8E
:104F240040F0C680029D002D40F00D81039D002DB0
:104F3400C3D04FF0FF370023BD4284F80432C4F8D5
:104F44002C720BD001232A46214694F80102FFF764
:104F5400B9FE002840F00B81C4F82C524AF65522C1
:104F640094F8FF1194F8FE3143EA01239342A4D14B
:104F7400D4F83630714A23F07F43934205D0D4F8F5
:104F8400523023F07F43934297D1227BE37A43EA62
:104F94000223B3F5007F90D1E37DA27D217C52EA08
:104FA400032208BF626A4B1E012BC4F8182284F83E
:104FB400031282D894F80DC002FB01F184F802C2F6
:104FC400BCF1000F3FF479AF0CF1FF3313EA0C0F7F
:104FD4007FF473AFA37C677C47EA03273B07A4F8FD
:104FE40008727FF46AAF207DE37C94F80FE053EA03
:104FF4000023A07B08BF236A50EA0E203FF45DAF74
:1050040000EB171E8E447345FFF457AFA3EB0E035A
:10501400B3FBFCF3002B3FF450AF40F6F57C634543
:1050240040F235814FF6F57C634540F20D81023341
:1050340028440EEB0501C4F81432C4F82002C4F865
:105044002812C4F81C52002F7FF437AF9B00E16A8A
:1050540003F2FF13B2EB532FC4F82412FFF42DAF65
:105064004FF0FF32802194F8310094F83030C4F8C6
:10507400102243EA0023012BC4F80C2284F8051201
:1050840000F0B3800322B388B16801339BB28C4231
:10509400B380A4F8063204BF0023B360736984F8B4
:1050A40000229C424FF000007FF4D1AE7061CEE646
:1050B4004FF0FF370023BD4284F80432C4F82C7249
:1050C40078D001232A46214694F80102FFF7FAFD1D
:1050D40000286DD0C4F82C7224E74FF0FF3700226B
:1050E400BD4284F80422C4F82C7216D001232A4647
:1050F400214694F80102FFF7E5FD08BB4AF6552264
:1051040094F8FF1194F8FE31C4F82C5243EA0123B9
:1051140093427FF403AFD4F83630084A23F07F4338
:1051240093423FF432AFD4F8523023F07F4393429A
:105134007FF4F4AE29E700BF380200204641540052
:10514400C4F82C72EAE64FF0FF370023BD4284F81E
:105154000432C4F82C7210D001232A46214694F854
:105164000102FFF7AFFD30B1C4F82C72DEE6C4F8DB
:105174002C7201206BE6C4F82C524AF6552294F89E
:10518400FF1194F8FE3143EA012393427FF4CEAE3B
:10519400D4F83630524A23F07F4393423FF4F5AEBD
:1051A400D4F8523023F07F4393427FF4BFAEECE651
:1051B400C4F82C524AF6552294F8FF1194F8FE31A3
:1051C40043EA012393427FF4ADAED4F83630444A27
:1051D40023F07F4393423FF4D8AED4F8523023F007
:1051E4007F4393427FF49EAECFE6691C2046FFF7CF
:1051F400BFFD00287FF446AF4AF6552294F8FF110C
:1052040094F8FE3184F8057243EA012393427FF453
:1052140039AF344B22689A427FF434AF03F1FF5321
:1052240003F50053D4F8E42120339A427FF42AAFE3
:10523400D4F8E811D4F8EC310322C4F81012C4F8FD
:105244000C3220E70546A0E602332844AE44C4F8F5
:105254001432C4F82002C4F828E2C4F81C52002F07
:105264003FF42BAE5B0003F2FF130844B2EB532F61
:10527400C4F82402FFF421AE4FF0FF338022C4F8B7
:10528400103284F80522C4F80C320222FBE6023301
:105294002844AE44C4F81432C4F82002C4F828E206
:1052A400C4F81C52002F3FF408AE03F0010505F2C8
:1052B400FF1503EB430305EB53030844B2EB532FF1
:1052C400C4F82402FFF4F9AD4FF0FF338022C4F890
:1052D400103284F80522C4F80C320122D3E600BF50
:1052E4004641540052526141F8B590F804320446E4
:1052F4006BB994F80032032B31D0002294F80102E8
:105304001146FFF7FBFC003018BF0120F8BDD0F8B0
:105314002C52014601232A4690F80102FFF7E0FCD3
:10532400D8B9D4F82022D4F81832AA1A9A4284F8A8
:105334000402DED294F80362012E02D8D9E7D4F82D
:1053440018321D44013E2A460123214694F80102E5
:10535400FFF7C6FC012EF2D1CBE70120F8BD94F88B
:105364000552012DC9D15527AA264FF400720021F8
:10537400204604F060FCD4F81002D4F80C12C0F3F8
:10538400072E2B4684F8E801050C000E84F8EB0187
:10539400C1F30720D4F81C2284F8ED01080C84F82A
:1053A400EA5184F8EE010E4D0E48013284F8EC11F6
:1053B400090E84F8EF11C4F8E40184F8E9E1C4F8B3
:1053C4002C2284F8FE7184F8FF612560214694F84C
:1053D4000102FFF785FC002384F805328DE700BF46
:1053E40052526141727241612DE9F04790F80032E6
:1053F4000446022B0D46174600F0AA80032B77D0F3
:10540400012B02D00220BDE8F087D0F8202201EB66
:105414005108D0F82C6202EB5829B14513D090F80A
:105424000422002A40F0E28001234A46214694F8EF
:105434000102FFF747FC002840F02C814E46D4F8C7
:105444002022C4F82C9215F0010A08F10109C8F3CE
:10545400080800F02681012114F8083002EB5925D0
:1054640003F00F0343EA0713AE4204F8083084F84C
:10547400041200F02F8101233246214694F80102E0
:10548400FFF72EFC002840F00281D4F82022D4F843
:105494001832B21A9A4284F8040214D294F803829D
:1054A400B8F1010F02D80EE0D4F818321E4408F106
:1054B400FF3832460123214694F80102FFF710FC1D
:1054C400B8F1010FF0D101232A46214694F80102D4
:1054D400FFF7F8FB002840F0DD80C4F82C52C9F334
:1054E4000803BAF1000F00F0E880C7F30712EAE0FE
:1054F400D0F82062D0F82C9206EBD1164E4510D08D
:1055040090F80432002B40F0998001233246214662
:1055140094F80102FFF7D6FB002840F0BB80C4F8E2
:105524002C620121AD0005F4FE756319DA780020C0
:10553400120602F070423A436255C2F30727160C72
:10554400120E5F709E70DA7084F80412BDE8F08762
:10555400D0F82062D0F82C9206EB11264E450ED0DE
:1055640090F80432CBB901233246214694F8010263
:10557400FFF7A8FB002840F08D80C4F82C620123BB
:105584009D4005F4FF756219C7F3072167555170F3
:1055940084F804320020BDE8F087014601234A461E
:1055A40090F80102FFF79CFB002870D1D4F8202268
:1055B400D4F81832A9EB02029A4284F80402D2D237
:1055C40094F80382B8F1010F02D8CCE7D4F818326A
:1055D400994408F1FF384A460123214694F8010210
:1055E400FFF77EFBB8F1010FF0D1BCE7014632466C
:1055F40090F80102FFF774FB002848D1D4F8202268
:10560400D4F81832B21A9A4284F80402BFF40CAFE8
:1056140094F803A2BAF1010F02D805E7D4F81832BE
:105624001E440AF1FF3A32460123214694F801024E
:10563400FFF756FBBAF1010FF0D1F5E6014601235D
:105644004A4690F80102FFF74BFB00BBD4F8202236
:10565400D4F81832A9EB02029A4284F80402BFF487
:1056640054AF94F80382B8F1010F02D84DE7D4F88F
:105674001832994408F1FF384A460123214694F828
:105684000102FFF72DFBB8F1010FF0D13DE7012036
:10569400BDE8F0874FF0FF330120C4F82C32BDE899
:1056A400F087012302EB5925AE4204F8087084F810
:1056B40004327FF4E0AEC9F30803E15CC7F30322CC
:1056C40021F00F073A430121E25484F80412002028
:1056D400BDE8F087C9F3080307E700BF2DE9F047E9
:1056E40004460D46D4F814329D4274D2012D07D9D4
:1056F40094F80032022B71D0032B24D0012B02D05A
:105704000220BDE8F087D4F8207205EB5508D4F8E0
:105714002C6207EB5829B14500F0848094F80422E8
:10572400002A40F0D48001234A46214694F801021D
:10573400FFF7C8FA002870D04FF0FF33C4F82C32BA
:105744000120BDE8F087D4F82062D4F82C8206EB5F
:10575400D51646450FD094F80432002B40F08480CF
:1057640001233246214694F80102FFF7ABFA0028E0
:1057740071D1C4F82C62AB0003F4FE73E21896787E
:10578400D078E15C360446EA006653780E4346EA74
:10579400032626F07046F6B1012EB1D0D4F81432A7
:1057A4009D42ADD2294600222046FFF71DFE002867
:1057B40058D1D4F810325A1C08D094F80522013379
:1057C40042F00102C4F8103284F805223546D4F8B8
:1057D40014329D428AD30020BDE8F087D4F82062B9
:1057E400D4F82C8206EB152646450DD094F80432E5
:1057F400002B53D101233246214694F80102FFF7CE
:1058040061FA40BBC4F82C626B0003F4FF73E21826
:105814005278E65C46EA0226BDE74E46D4F820728A
:10582400C4F82C9208F1010907EB5927C8F30808BA
:10583400B74214F808A000F08E8094F80432002BCC
:1058440040F0958001233A46214694F80102FFF77F
:1058540039FA00287DD04FF0FF330120C4F82C32F0
:10586400BDE8F087BDE8F08701234246214694F85D
:105874000102FFF735FA00287FF462AFD4F8202242
:10588400D4F81832A8EB02029A4284F80402BFF456
:1058940067AF94F80372012F4FD861E701234246A2
:1058A400214694F80102FFF71BFA00287FF448AF61
:1058B400D4F82022D4F81832A8EB02029A4284F8D1
:1058C400040297D294F80372012F28D892E7324643
:1058D400214694F80102FFF703FA00287FF430AF61
:1058E400D4F82022D4F81832B21A9A4284F8040266
:1058F400BFF419AF94F80372012F02D813E7D4F858
:1059040018321E44013F32460123214694F8010215
:10591400FFF7E6F9012FF2D105E7D4F818329844DD
:10592400013F42460123214694F80102FFF7D8F9CA
:10593400012FF2D15EE7D4F818329844013F424671
:105944000123214694F80102FFF7CAF9012FF2D18D
:1059540006E7C4F82C72C9F3080914F80960E907CA
:105964004AEA06264CBF3609C6F30B0613E70123A1
:105974003246214694F80102FFF7B2F900287FF479
:10598400DFAED4F82022D4F81832B21A9A4284F83E
:105994000402BFF457AF94F80382B8F1010F02D8A0
:1059A40050E7D4F818321E4408F1FF383246012378
:1059B400214694F80102FFF793F9B8F1010FF0D1F1
:1059C40040E700BF2DE9F04790F800320446022B6F
:1059D4000D4677D0032B4AD0012B02D00120BDE81D
:1059E400F087D0F8207201EB5108D0F82C6207EB55
:1059F4005829B14513D090F80422002A40F0A98018
:105A040001234A46214694F80102FFF75BF9002876
:105A140040F0EE804E46D4F82072C4F82C9208F17F
:105A2400010907EB5927C8F30808B74214F808A07E
:105A340010D094F80432002B40F0E08001233A4661
:105A4400214694F80102FFF73DF9002840F0D08088
:105A5400C4F82C72C9F3080914F809304AEA03207F
:105A6400EB074CBF0009C0F30B00BDE8F087D0F88A
:105A74002062D0F82C8206EBD116464510D090F85F
:105A84000432002B40F08A8001233246214694F8E8
:105A94000102FFF717F9002840F0AA80C4F82C622D
:105AA400AD0005F4FE7563199878D978625D000439
:105AB40040EA01605B78104340EA032020F0704024
:105AC400BDE8F087D0F82062D0F82C8206EB1126CE
