:020000040800F2
:1000000000C000202D3E0008B5390008B7390008AF
:10001000B9390008BB390008BD39000800000000EC
:10002000000000000000000000000000BF390008D0
:10003000C139000800000000C3390008C5390008B4
:10004000753E0008753E0008753E0008753E0008C4
:10005000753E0008753E0008753E0008753E0008B4
:10006000753E0008753E0008753E0008753E0008A4
:10007000753E0008753E0008753E0008753E000894
:10008000753E0008753E0008753E0008753E000884
:10009000D1390008753E0008753E0008753E00081D
:1000A000753E0008753E0008753E0008753E000864
:1000B000753E0008E1390008753E0008753E0008ED
:1000C000753E0008753E0008753E0008753E000844
:1000D000753E0008753E0008753E0008753E000834
:1000E000753E0008753E0008753E0008753E000824
:1000F000753E0008753E0008753E0008753E000814
:10010000753E0008753E0008753E0008753E000803
:10011000753E0008753E0008753E0008753E0008F3
:10012000753E0008753E0008753E0008753E0008E3
:1001300000000000000000000000000000000000BF
:1001400000000000000000000000000000000000AF
:10015000000000000000000000000000000000009F
:10016000000000000000000000000000000000008F
:10017000000000000000000000000000000000007F
:10018000000000000000000000000000000000006F
:10019000000000000000000000000000000000005F
:1001A000000000000000000000000000000000004F
:1001B000000000000000000000000000000000003F
:1001C000000000000000000000000000000000002F
:1001D000000000000000000000000000000000001F
:0401E0005FF8E0F1F3
:1001E40010B5054C237833B9044B13B10448AFF36D
:1001F40000800123237010BD600100200000000076
:10020400C03E00080C4B43B10C4810B50C49AFF389
:1002140000800C48036823B910BD0A48036833B949
:100224007047094B002BF7D0BDE810401847064B28
:10023400002BF5D0184700BF00000000C03E0008A6
:1002440064010020600100200000000010B5044695
:100254000E4B18784FF47A73B3FBF0F30C4A106822
:10026400B0FBF3F000F09EF868B90F2C01D901201F
:1002740010BD002221464FF0FF3000F055F8034B2B
:100284005C60002010BD012010BD00BF00000020F4
:100294001801002008B5074A136843F010031360DF
:1002A400032000F02FF80020FFF7D0FF03F07AFAC4
:1002B400002008BD00200240034A1168034B1B784C
:1002C4000B441360704700BFA4030020000000200B
:1002D400014B1868704700BFA403002038B50446DA
:1002E400FFF7F6FF0546B4F1FF3F02D0044B1B783D
:1002F4001C44FFF7EDFF401B8442FAD838BD00BF11
:1003040000000020074AD36823F4E0631B041B0C9D
:10031400000200F4E060184340F0BF6040F4003095
:10032400D060704700ED00E030B4164BDB68C3F3D7
:100334000223C3F10704042C28BF04241D1D062D29
:1003440017D9033B012505FA04F4013C21409940E7
:1003540005FA03F3013B1340194300280BDB0901A1
:10036400C9B200F1604000F5614080F8001330BC70
:1003740070470023E6E700F00F000901C9B2024B01
:100384001954F4E700ED00E014ED00E0420900F038
:100394001F00012303FA00F0014B43F822007047C9
:1003A40000E100E00138B0F1807F0AD2064B5860CA
:1003B400F021064A82F823100020986007221A6070
:1003C40070470120704700BF10E000E000ED00E03E
:1003D400042805D0054A136823F00403136070470A
:1003E400024A136843F004031360704710E000E00E
:1003F400704708B5FFF7FCFF08BD0000F0B583B0F7
:100404000026344679E0002D00F0A980012D00D1AA
:10041400CE68FF2B00F2B7808646FF2B00F2B68031
:10042400A500DEF800200F27AF4022EA070206FAF3
:1004340005F52A43CEF800204A6812F0805F5BD0AD
:10044400674A956945F001059561926902F00102D8
:100454000192019AA208971C624D55F8275004F0A6
:1004640003074FEA870E0F2707FA0EF725EA070559
:100474005D4FB84200F0908007F58067B84200F005
:100484008D8007F58067B84200F08A8007F58067A1
:10049400B84200F0878007F58067B84200F0848096
:1004A40007F58067B84275D0062707FA0EF73D4373
:1004B40002324C4F47F822504A6812F4803F75D0FC
:1004C4004A4D2A681A432A604A6812F4003F73D0DE
:1004D400464D6A681A436A604A6812F4801F71D0F4
:1004E400424DAA681A43AA604A6812F4001F6FD0EA
:1004F4003E4DEA681343EB6001340F2C6ED80122A1
:10050400A2400B6813409A42F6D14D68122D30D0A8
:100514000BD8022D2AD07FF676AF032D2FD0112DC4
:100524007FF477AFCE68043673E7314FBD4216D0FF
:100534000CD9304FBD4212D007F58037BD420ED0E2
:10054400A7F58017BD427FF464AF08E0A7F58017D4
:10055400BD4204D007F58037BD427FF45AAF8D68A1
:100564007DB1012D08D04261082652E7CE680836D5
:100574004FE7CE680C364CE70261082649E70026AF
:1005840047E7042645E700F1040E46E7A4F1080511
:10059400AD0046E7052788E7002786E7012784E7BB
:1005A400022782E7032780E704277EE70F4D2A68A6
:1005B40022EA03022A6087E70C4D6A6822EA0302F2
:1005C4006A6089E7094DAA6822EA0302AA608BE7F8
:1005D400064DEA6822EA0303EB608DE703B0F0BD41
:1005E40000100240000001400008014000040140E6
:1005F400000021100000311012B909040161704794
:1006040001617047002800F0A28070B5044690F89C
:100614003D30002B4FD0242384F83D3022681368EA
:1006240023F00103136001F01FF862684A4B9A42F9
:1006340046D84A4B98428CBF00230123002B40F03C
:100644008880474BA3FB00239B0C226853602168DE
:100654006568414A954239D801330B622268616862
:100664003D4B99423CD801384900B0FBF1F00130D0
:10067400C0F30B00042838BF0420D0612268E3696A
:10068400216A0B43136022682369E1680B4393607A
:1006940022686369A1690B43D3602268136843F03D
:1006A4000103136000202064202384F83D3020637C
:1006B40084F83E0070BD80F83C3003F0C3F8AAE72C
:1006C400284B98428CBF00230123B7E74FF496725E
:1006D40002FB03F3244AA2FB03239B090133BCE777
:1006E400A568BDB9431E01EB4106B3FBF6F3013324
:1006F400C3F30B03B3FA83F35B0933BBC5B9431EDE
:1007040001EB4100B3FBF0F00130C0F30B0040F407
:100714000040B2E7431E01EB810606EB8606B3FBFD
:10072400F6F30133C3F30B03B3FA83F35B09E4E792
:10073400431E01EB810000EB8000B3FBF0F00130BD
:10074400C0F30B0040F4404097E7012095E70120F7
:100754007047012070BD00BFA08601007F841E0089
:1007640083DE1B43FF083D00D34D6210002866D092
:10077400F0B587B0044690F82934C3B1032384F854
:100784002934206801F0F6FB254655F8107B6E46A7
:100794000FCD0FC62B683360231D0ECB384601F0F6
:1007A400D9FB0021206801F0EFFB002315E080F85D
:1007B400283403F099F9E1E704EB4312012182F8AC
:1007C400291082F828309386002182F82B10916337
:1007D400D1639A1C5201A15001330E2BECD9002392
:1007E40012E004EB4312002182F8291282F8283225
:1007F400938682F82B12C2F83812C2F83C1203F125
:1008040012025201A15001330E2BEAD9254655F8A4
:10081400107B6E460FCD0FC62B683360231D0ECBA5
:10082400384601F0B3FB002584F82450012384F8F2
:100834002934206801F0C3FE284607B0F0BD01202A
:10084400704790F82834012B01D10220704710B56D
:100854000446012180F8281403F083FA206801F08B
:10086400ACFE206801F07DFB002084F8280410BD54
:1008740090F82834012B01D10220704710B50446AA
:10088400012380F8283480F82410006801F08FFEDA
:10089400002084F8280410BD38B54DB2002D12DBB9
:1008A40001F07F04640104F50A74044401F07F013B
:1008B4002170ED0F65702261E37090F82834012BEC
:1008C40007D1022038BD01F07F04640128340444B8
:1008D400ECE70546012380F828342146006801F03E
:1008E4006BFB002085F8280438BD4AB2002A10DBCF
:1008F40001F07F035B0103F50A73034401F07F01F8
:100904001970D20F5A7090F82824012A07D10220B6
:10091400704701F07F035B0128330344EEE710B511
:100924000446012280F828241946006801F0DDFC01
:10093400002084F8280410BD70B501F07F056C0117
:1009440004F50A7101440444C4F83C2205F112027E
:100954005201861883500023736084F8293284F886
:10096400285225B1006801F047FE002070BD0068E0
:1009740001F042FEF9E701F00F01123100EB4111E1
:100984008888704770B501F07F056C0104F1280177
:1009940001440444E263AA1C5201861883500023D4
:1009A4007360012384F8293084F8285025B1006845
:1009B40001F022FE002070BD006801F01DFEF9E781
:1009C40070B582B005460023ADF80630ADF80430AA
:1009D40095E103889BB223F4E14323F070039BB2B7
:1009E40003802A68B2F850309BB295F8281003EBC4
:1009F400C103023302EB4303D3F80034C3F3090306
:100A04006B64EA6B1344EB630021284603F09EF801
:100A140095F82430002B00F072812B6C002B40F0F1
:100A24006E812A6895F8243043F08003A2F84C3094
:100A3400002385F8243062E1B0F850309BB295F879
:100A4400282203EBC203063300EB4303D3F800343C
:100A5400C3F30903C5F84432B5F82C2205F22C413E
:100A640001F030FF2A68138823F070031B051B0D67
:100A74001380284603F058F841E1B5F82C22D5F844
:100A84003C1201F01FFFD5F84422D5F83C32134440
:100A9400C5F83C3272E1C1F34F0211F0010F01D0ED
:100AA400013292B2920292B2C3F8002484E130F887
:100AB40024309BB2ADF80430BDF8043013F4004F79
:100AC40036D1BDF8043013F0800F00F018812A6885
:100AD40032F824309BB223F4E14323F070039BB239
:100AE40022F8243005EB441393F83230002B40F005
:100AF400B6802868B0F850309BB205EB441292F8E7
:100B0400282003EBC203023300EB4303D3F8003481
:100B1400C3F30903A21C05EB42125360002B00F03F
:100B2400CD8005EB44118A8DC96B01F050FDC5E001
:100B340030F8243023F070031B051B0D20F82430FB
:100B440005EB441393F83232DBB92868B0F850301F
:100B54009BB205EB441292F8282203EBC20306333E
:100B640000EB4303B3F80064C6F309068EB305EB48
:100B740044113346B1F82C22D1F83C1201F0A2FE04
:100B840027E0286805EB441393F8282230F8223034
:100B940013F4804F43D0B0F850309BB203EBC20340
:100BA400023300EB4303B3F80064C6F3090666BBE3
:100BB4002A6805EB441393F8281232F8213023F005
:100BC400F0031B051B0D43F4004343F0C00322F85C
:100BD400213004F112035B01E9184A6832444A6087
:100BE40005EB4411D1F83C223244C1F83C22EB58C5
:100BF4001BB1D1F838128E4229D205EB441393F875
:100C04002812284602F098FF5BE705EB44113346AF
:100C1400B1F82E22D1F83C1201F054FEC8E7B0F826
:100C240050309BB203EBC203063300EB4303B3F82B
:100C34000064C6F30906002EBAD005EB441133460E
:100C4400B1F83022D1F83C1201F03CFEB0E705EBDC
:100C5400441191F828122846FFF76EFE31E7286800
:100C640005EB441393F8282030F8223013F0400F9A
:100C740000F0B880B0F850309BB203EBC2030233EB
:100C840000EB4303D3F80034C3F30903A21C05EBC0
:100C940042125360002B40F09E802A6805EB4413F7
:100CA40093F8281032F8213023F0F0031B051B0DB4
:100CB40043F4404343F0800322F821302A68B2F819
:100CC40050309BB205EB441090F8281003EBC1039D
:100CD400023302EB4303D3F80024C2F30902A31C3A
:100CE4005B01E9184A60C16B0A44C263EB58002BEC
:100CF40040F0928090F82810284602F027FF2868D8
:100D0400B0F844309BB2ADF8063013F4004F00F055
:100D14008B80BDF8064014F00F047FF4C8AEBDF814
:100D2400063013F0100F3FF454AE03889BB2ADF8B5
:100D34000430BDF8043013F4006F7FF47DAEBDF8C9
:100D4400043013F4004FDAD0038823F070031B053A
:100D54001B0D03802868B0F850309BB295F8282208
:100D640003EBC203063300EB4303D3F80034C3F3AD
:100D74000903C5F84432002B7FF47FAE00212846D6
:100D840002F0DAFE2A68B2F850309BB2063302EB66
:100D94004303D5F838123E297FF67DAEC1F34F12D6
:100DA40011F01F0F01D1013A92B26FEAC2626FEAE9
:100DB400524292B2C3F800242A6813889BB223F4E7
:100DC400804323F0700383F4405343F4004343F01F
:100DD4008003138093E705EB4411CA8DC96B01F0BE
:100DE400F6FB5AE7B0F850309BB203EBC20306336C
:100DF40000EB4303D3F80034C3F30903A21C05EB4F
:100E040042125360002B3FF448AF05EB44110A8EA5
:100E1400C96B01F0DCFB40E705EB441494F828109F
:100E24002846FFF7AFFD6AE7002002B070BD10B599
:100E34000446006801F0C5FB10F4004F45D120685A
:100E440001F0BFFB10F4806F43D1206801F0B9FBBF
:100E540010F4804F08D02268B2F844309BB223F4D7
:100E640080439BB2A2F84430206801F0AAFB10F43E
:100E7400005F08D02268B2F844309BB223F40053D8
:100E84009BB2A2F84430206801F09BFB10F4805F11
:100E940030D1206801F095FB10F4006F49D120682F
:100EA40001F08FFB10F4007F66D1206801F089FB0C
:100EB40010F4807F08D02268B2F844309BB223F447
:100EC40080739BB2A2F8443010BD2046FFF778FD32
:100ED400B5E72268B2F844309BB223F480639BB236
:100EE400A2F84430204602F040FE00212046FFF7DD
:100EF400BFFCAAE72268B2F840309BB223F0040397
:100F04009BB2A2F840302268B2F840309BB223F082
:100F140008039BB2A2F84030204602F043FE226848
:100F2400B2F844309BB223F480539BB2A2F844300D
:100F3400AFE72268B2F840309BB243F00803A2F84E
:100F440040302268B2F844309BB223F400639BB271
:100F5400A2F844302268B2F840309BB243F0040354
:100F6400A2F84030206801F02CFB10F4805F96D189
:100F7400204602F007FE92E72268B2F844309BB2A2
:100F840023F400739BB2A2F84430204602F0E7FD3C
:100F94008BE738B54AB2002A10DB4B0103F50A731C
:100FA400034401249C7001F07F041C70D20F5A701A
:100FB40090F82824012A07D1022038BD01F07F03CC
:100FC4005B0128330344ECE70546012280F828241A
:100FD4001946006801F06BFA1CB1002085F828045A
:100FE40038BD05F22C41286801F0EFFAF5E710B599
:100FF4004AB2002A10DB4B0103F50A7303440024B0
:101004009C7001F07F011970D20F5A7090F8282457
:10101400012A07D1022010BD01F07F035B012833B0
:101024000344ECE70446012280F8282419460068AA
:1010340001F074FA002084F8280410BD11F0800F28
:101044000CD001F07F014901283101445AB1012239
:101054008A72CB801B0C0B8100207047490101F57B
:101064000A710144F2E78A728B80F5E782B0084B7B
:101074001B68084AA2FB03235B0A00FB03F00190F0
:1010840000BF019B5A1E0192002BF9D102B0704798
:1010940018010020D34D621070B582B00446036875
:1010A40013F0010F3DD0AC4B5B6803F00C03042B31
:1010B4002ED0A94B5B6803F00C03082B23D0636884
:1010C400B3F5803F51D0002B55D103F1804303F594
:1010D40004331A6822F480321A601A6822F48022D7
:1010E4001A606368002B60D0FFF7F2F805469A4B4C
:1010F4001B6813F4003F14D1FFF7EAF8401B64287F
:10110400F5D90320AFE1944B5B6813F4803FD6D04C
:10111400914B1B6813F4003F03D06368002B00F06D
:101124009F81236813F0020F65D08B4B5B6813F02B
:101134000C0F4ED0884B5B6803F00C03082B43D094
:101144002369002B79D00122844B1A60FFF7C0F881
:101154000546814B1B6813F0020F65D1FFF7B8F801
:10116400401B0228F5D903207DE17B4A136843F430
:1011740080331360B5E7B3F5A02F09D0764B1A6816
:1011840022F480321A601A6822F480221A60A8E7D6
:1011940003F18043A3F53C331A6842F480221A60B9
:1011A4001A6842F480321A609BE7FFF791F805460B
:1011B400694B1B6813F4003FB3D0FFF789F8401B59
:1011C4006428F5D903204EE1634B5B6813F4803F38
:1011D400B6D1614B1B6813F0020F04D02369012BB5
:1011E40001D001203FE15C4A136823F0F8036169F0
:1011F40043EAC1031360236813F0080F32D0A369D4
:10120400002B6ED00122564B1A60FFF761F8054699
:10121400514B5B6A13F0020F21D1FFF759F8401BC1
:101224000228F5D903201EE14B4A136823F0F80382
:10123400616943EAC1031360DDE70022474B1A608A
:10124400FFF746F80546444B1B6813F0020FD2D053
:10125400FFF73EF8401B0228F5D9032003E10120E3
:10126400FFF704FF236813F0040F00F099803A4B52
:10127400DB6913F0805F46D1374BDA6942F0805264
:10128400DA61DB6903F080530193019B0125354B3F
:101294001B6813F4807F38D0E368012B49D0002BFE
:1012A4004DD103F1804303F504331A6A22F001029D
:1012B4001A621A6A22F004021A62E368002B5DD0F3
:1012C400FFF706F80646244B1B6A13F0020F66D19B
:1012D400FEF7FEFF801B41F288339842F3D90320C6
:1012E400C1E000221E4B1A60FEF7F2FF05461A4BBE
:1012F4005B6A13F0020FB5D0FEF7EAFF401B022829
:10130400F5D90320AFE00025C1E7164A136843F47A
:1013140080731360FEF7DCFF0646124B1B6813F460
:10132400807FB9D1FEF7D4FF801B6428F5D9032050
:1013340099E0094A136A43F001031362BDE7052BE0
:1013440012D0054B1A6A22F001021A621A6A22F0BC
:1013540004021A62B1E700BF0010024000004242DA
:101364008004424200700040414B1A6A42F0040279
:101374001A621A6A42F001021A629EE7FEF7A8FF97
:1013840006463B4B1B6A13F0020F08D0FEF7A0FF82
:10139400801B41F288339842F3D9032063E0E5B916
:1013A400E369002B5ED0324A526802F00C02082A2C
:1013B4005BD0022B17D000222E4B1A60FEF788FF59
:1013C40004462B4B1B6813F0007F47D0FEF780FFC9
:1013D400001B0228F5D9032045E0254AD36923F0F0
:1013E4008053D361DCE70022224B1A60FEF770FFC2
:1013F40005461F4B1B6813F0007F06D0FEF768FFFD
:10140400401B0228F5D903202DE0236AB3F5803F61
:101414001AD017494B6823F47413226A606A024392
:1014240013434B600122134B1A60FEF751FF04462D
:101434000F4B1B6813F0007F0ED1FEF749FF001B12
:101444000228F5D903200EE0094A536823F4003337
:10145400A1680B435360DCE7002004E0002002E0B5
:10146400012000E0002002B070BD0120FBE700BFB6
:10147400001002406000424210B586B0154C94E85A
:101484000F000DF1180E0EE90F00238AADF8043099
:10149400114B5B6803F00C02082A18D1C3F3834292
:1014A400724412F8102C13F4803F03D10B4800FB54
:1014B40002F00DE0084B5B68C3F34043734413F838
:1014C400143C074800FB02F0B0FBF3F000E00448D2
:1014D40006B010BDD83E00080010024000093D00CF
:1014E40000127A00594B1B6803F007038B420CD29D
:1014F400564A136823F007030B431360136803F081
:101504000703994201D00120704770B5036813F0B6
:10151400020F06D04E4A536823F0F0038468234335
:1015240053600D460446036813F0010F52D043681C
:10153400012B23D0022B28D0454A126812F0020F47
:1015440000F0828042494A6822F0030213434B6050
:10155400FEF7BEFE06466368012B1DD0022B2AD07F
:101564003B4B5B6813F00C0F34D0FEF7B1FE801BCD
:1015740041F288339842F3D9032070BD344A12688B
:1015840012F4003FDED1012070BD314A126812F01E
:10159400007FD7D1012070BD2D4B5B6803F00C0395
:1015A400042B17D0FEF794FE801B41F28833984237
:1015B400F2D9032070BD264B5B6803F00C03082BA3
:1015C40008D0FEF785FE801B41F288339842F2D999
:1015D400032070BD1D4B1B6803F007039D420CD212
:1015E4001A4A136823F007032B431360136803F0AC
:1015F40007039D4201D0012070BD236813F0040F3E
:1016040006D0134A536823F4E063E1680B43536044
:10161400236813F0080F07D00D4A536823F460536E
:10162400216943EAC1035360FFF726FF084B5B6857
:10163400C3F30313074AD35CD840074B1860002058
:10164400FEF704FE002070BD012070BD00200240A2
:1016540000100240F43E000818010020014B1868F5
:10166400704700BF1801002008B5FFF7F7FF044BCF
:101674005B68C3F30223034AD35CD84008BD00BFB0
:1016840000100240043F000870B582B004460368AD
:1016940013F0010F34D03E4BDB6913F0805F48D167
:1016A4003B4BDA6942F08052DA61DB6903F0805324
:1016B4000193019B0125374B1B6813F4807F3AD0BB
:1016C400334B1B6A13F4407311D0626802F4407206
:1016D40093420CD02E4A136A23F440702E490126FB
:1016E4000E6000260E60106213F0010F37D1284AF5
:1016F400136A23F4407361680B431362002D3FD1D6
:10170400236813F0020F06D0214A536823F44043A0
:10171400A1680B435360236813F0100F35D01C4AA3
:10172400536823F4800361690B435360002002B0C3
:1017340070BD0025BFE7174A136843F48073136034
:10174400FEF7C6FD0646134B1B6813F4807FB7D122
:10175400FEF7BEFD801B6428F5D90320E7E7FEF7FA
:10176400B7FD06460A4B1B6A13F0020FBFD1FEF702
:10177400AFFD801B41F288339842F3D90320D6E7AA
:10178400D36923F08053D361BAE70020CFE700BFC9
:10179400001002400070004040044242F8B5054683
:1017A4000F4616461C463BE02CB1FEF791FD069B06
:1017B400C01A844234D82A68536823F0E003536083
:1017C4006B68B3F5827F0BD0AB6AB3F5005F14D0BE
:1017D400012385F85130002385F850300320F8BDEB
:1017E400AB68B3F5004F02D0B3F5806FECD12A6833
:1017F400136823F040031360E6E72A68136823F4B0
:1018040000531B041B0C13602A68136843F4005331
:101814001360DDE70123B34209D0B4F1FF3FC3D124
:101824002B689B6837EA0303F4D00023F3E7002016
:10183400F8BD10B582B0044600920B460022802108
:10184400FFF7ACFF034620B1636D43F020036365EB
:101854000323184602B010BD2DE9F04385B0984625
:101864000C9D90F85030012B04D10223184605B08A
:10187400BDE8F08304460F461646012380F8503035
:10188400FEF726FD814694F85130DBB26268012BE5
:1018940012D0B2F5827F07D00223012284F85120AE
:1018A400002284F85020E1E7A268002A40F0E98091
:1018B400042B01D00223F0E7002F00F0E480002E77
:1018C40000F0E380B8F1000F00F0E18094F85130AB
:1018D400DBB2012B2CD000236365A663A4F83E8001
:1018E400A4F83C802763A4F83680A4F834802364E9
:1018F400636423681A6812F0400F03D11A6842F037
:1019040040021A60E368B3F5006F15D063681BB139
:10191400E38E9BB2012B08D1236817F8012B1A73AD
:10192400E38E9BB2013B9BB2E3864FF0010869E072
:10193400052384F85130CEE763681BB1E38E9BB274
:10194400012B08D1236837F8022BDA60E38E9BB2AF
:10195400013B9BB2E3864FF001081AE0E38F9BB290
:1019640073B123689A6812F0010F09D0DB6826F876
:10197400023BE38F9BB2013B9BB2E3874FF001082C
:10198400B5F1FF3F05D0FEF7A3FCA0EB09008542AB
:101994007FD9E38E9BB21BB9E38F9BB2002B4ED051
:1019A400B8F1000FDAD0E38E9BB2002BD6D02368B7
:1019B4009A6812F0020FD1D037F8022BDA60E38E66
:1019C4009BB2013B9BB2E3864FF00008C6E7E38F6E
:1019D4009BB273B123689A6812F0010F09D0DB68D7
:1019E4003370E38F9BB2013B9BB2E38701364FF028
:1019F4000108B5F1FF3F05D0FEF76AFCA0EB090032
:101A0400854248D9E38E9BB213B9E38F9BB2B3B13D
:101A1400B8F1000FDBD0E38E9BB2002BD7D0236844
:101A24009A6812F0020FD2D03A781A73E38E9BB2FE
:101A3400013B9BB2E38601374FF00008C7E7CDF8BE
:101A440000902B46012202212046FFF7A7FE08B191
:101A5400032322E74A4629462046FFF7EAFE0346C7
:101A640018B120236365012317E7A268002A7FF4D5
:101A740014AF03922268D168039192680392039A87
:101A84000BE7022309E7012307E7012305E7012305
:101A940003E7032301E70323FFE600283CD010B546
:101AA40004460023836290F85130002B31D0022386
:101AB40084F851302268136823F0400313602268CD
:101AC4006368A1680B43E1680B4321690B436169B7
:101AD4000B43A16901F400710B43E1690B43216AD3
:101AE4000B43A16A0B4313602268638B03F0040366
:101AF400616A0B4353602368E26A1A612268D369FE
:101B040023F40063D36100206065012384F851301D
:101B140010BD01F0BDFECAE70120704710B4036A8E
:101B2400046A24F001040462846924F0F00444EAA1
:101B3400021223F00A030B438261036210BC704754
:101B440010B4036A23F0100303628469036A24F463
:101B5400704444EA023223F0A00343EA0113826191
:101B6400036210BC7047836823F0700341F00701DF
:101B74000B438360704710B4846824F47F4442EAC2
:101B8400032319430C43846010BC70470268D36874
:101B940043F00103D3600268136843F00103136048
:101BA4000020704790F83C30012B7DD010B50446DE
:101BB400012380F83C30022380F83D3002689368AA
:101BC40023F47F4323F0770393600B68402B57D0B3
:101BD40010D9702B3ED01FD8502B47D0602B32D158
:101BE400CA6849680068FFF7ABFF60212068FFF707
:101BF400BAFF28E0102B4DD008D9202B4FD0302B22
:101C040021D130210068FFF7AEFF1CE0DBB90021D1
:101C14000068FFF7A8FF16E0B3F5805F0ED0B3F5B8
:101C2400005F10D1CB684A6889680068FFF7A3FF9A
:101C34002268936843F48043936004E002689368E5
:101C440023F007039360012384F83D30002084F8D7
:101C54003C0010BDCB684A6889680068FFF78BFFB9
:101C64002268936843F077039360ECE7CA68496895
:101C74000068FFF753FF50212068FFF774FFE2E785
:101C8400CA6849680068FFF749FF40212068FFF7E8
:101C94006AFFD8E710210068FFF765FFD3E720212A
:101CA4000068FFF760FFCEE7022070477047704777
:101CB4007047704710B5044603681A6912F0020FA2
:101CC40011D0DA6812F0020F0DD06FF002021A611F
:101CD4000123037703689B6913F0030F70D0FFF7A8
:101CE400E6FF0023237723681A6912F0040F12D049
:101CF400DA6812F0040F0ED06FF004021A610223A6
:101D0400237723689B6913F4407F5FD02046FFF755
:101D1400CEFF0023237723681A6912F0080F12D02C
:101D2400DA6812F0080F0ED06FF008021A6104236B
:101D340023772368DB6913F0030F4ED02046FFF7A7
:101D4400B6FF0023237723681A6912F0100F12D00C
:101D5400DA6812F0100F0ED06FF010021A61082327
:101D640023772368DB6913F4407F3DD02046FFF7D7
:101D74009EFF0023237723681A6912F0010F03D012
:101D8400DA6812F0010F36D123681A6912F0800F55
:101D940003D0DA6812F0800F34D123681A6912F084
:101DA400400F03D0DA6812F0400F32D123681A6969
:101DB40012F0200F03D0DA6812F0200F30D110BDDA
:101DC400FFF774FF2046FFF773FF8AE72046FFF70B
:101DD4006DFF2046FFF76CFF9BE72046FFF766FF89
:101DE4002046FFF765FFACE72046FFF75FFF20467C
:101DF400FFF75EFFBDE76FF001021A61204601F0B4
:101E04000DFBC1E76FF080021A61204600F0A1F8D3
:101E1400C3E76FF040021A612046FFF74AFFC5E7A7
:101E24006FF020021A61204600F092F8C7E7000024
:101E34000368254A904212D002F5006290420ED007
:101E4400B0F1804F0BD0A2F59832904207D002F542
:101E54008062904203D002F58062904203D123F065
:101E640070034A681343184A904212D002F5006284
:101E740090420ED0B0F1804F0BD0A2F59832904230
:101E840007D002F58062904203D002F5806290424E
:101E940003D123F44073CA68134323F080034A69CF
:101EA400134303608B68C3620B688362064B9842DA
:101EB40006D003F50063984202D0012343617047C2
:101EC4000B690363F9E700BF002C0140A8B110B50A
:101ED400044690F83D305BB1022384F83D30211D67
:101EE4002068FFF7A5FF012384F83D30002010BDD2
:101EF40080F83C3001F03CFDEEE70120704790F89B
:101F04003C30012B22D030B4012280F83C20022343
:101F140080F83D300468636823F0700363600468EC
:101F240063680D682B4363600468A36823F080032F
:101F3400A3600468A36849680B43A36080F83D204C
:101F4400002380F83C30184630BC704702207047AC
:101F54007047704784B001A880E80E00002004B0E8
:101F64007047B0F840309BB243F43F43A0F8403090
:101F740000207047B0F8403023F474535B045B0CCA
:101F8400A0F84030002070470020704784B038B576
:101F940005AC84E80E000123A0F840300024A0F82A
:101FA4004040A0F84440A0F85040FFF7DAFF204634
:101FB400BDE8384004B0704710B4CB78032B0FD879
:101FC400DFE803F0026E55610A7830F822309BB2E4
:101FD40023F4EC4323F0700343F4007320F822301D
:101FE4000A7830F8223023F0F0031B051B0D13434D
:101FF40043F4004343F0800320F822308B7A002B13
:1020040040F0B2804B78002B57D0B0F850309BB2E0
:102014000A7803EBC20300EB43038A885208520098
:10202400C3F800240A7830F8223013F0400F0BD0A4
:1020340030F8223023F0F0031B051B0D43F400435A
:1020440043F0C00320F822300A7830F822309BB2E3
:1020540023F4E04323F0400383F0200343F40043DC
:1020640043F0800320F82230002010BC70470A7827
:1020740030F822309BB223F4EC4323F070039BB27C
:1020840020F82230ACE70A7830F822309BB223F4EF
:10209400EC4323F0700343F4C06320F822309FE73D
:1020A4000A7830F822309BB223F4EC4323F0700317
:1020B40043F4806320F8223092E7B0F850309BB2AA
:1020C4000A7803EBC203043300EB43038A88520803
:1020D4005200C3F80024B0F850309BB20A7803EBE6
:1020E400C203063300EB43030C693E2C30D9C4F31E
:1020F4004F1214F01F0F01D1013A92B26FEAC2627B
:102104006FEA524292B2C3F800240A7830F82230BF
:1021140013F4804F0BD030F8223023F0F0031B056A
:102124001B0D43F4404343F0800320F822300A7827
:1021340030F822309BB223F4804323F0700383F4FD
:10214400405343F4004343F0800320F822308BE7EC
:10215400C4F34F0214F0010F01D0013292B2920283
:1021640092B2C3F80024D0E70A7830F8223023F47E
:10217400F8731B051B0D43F4014343F0800320F85F
:102184002230B0F850309BB20A7803EBC20300EB64
:102194004303CA8852085200C3F80024B0F85030F0
:1021A4009BB20A7803EBC203043300EB43030A89AE
:1021B40052085200C3F800244B78002B4BD10A7804
:1021C40030F8223013F4804F0BD030F8223023F053
:1021D400F0031B051B0D43F4404343F0800320F838
:1021E40022300A7830F8223013F0400F0BD030F848
:1021F400223023F0F0031B051B0D43F4004343F08E
:10220400C00320F822300A7830F8223023F0F0039B
:102214001B051B0D43F4004343F0C00320F8223098
:102224000A7830F822309BB223F4804323F0700301
:1022340083F4405348F28004234320F822300A7880
:1022440030F822309BB223F4E04323F040032343CD
:1022540020F8223008E70A7830F8223013F4804F4F
:102264000BD030F8223023F0F0031B051B0D43F490
:10227400404343F0800320F822300A7830F82230BB
:1022840013F0400F0BD030F8223023F0F0031B057D
:102294001B0D43F4004343F0C00320F822300A78B6
:1022A40030F8223023F0F0031B051B0D43F44043A8
:1022B40043F0800320F822300B7830F8232092B2C8
:1022C40022F4E04222F0400248F28004224320F843
:1022D40023200A7830F822309BB223F4804323F081
:1022E4007003234320F82230BEE68B7A002B44D1BE
:1022F4004B780BB30A7830F8223013F0400F0BD030
:1023040030F8223023F0F0031B051B0D43F4004387
:1023140043F0C00320F822300A7830F822309BB210
:1023240023F4E04323F0400343F4004343F08003E9
:1023340020F82230002070470A7830F8223013F455
:10234400804F0BD030F8223023F0F0031B051B0D17
:1023540043F4404343F0800320F822300A7830F8F5
:1023640022309BB223F4804323F0700343F40043F0
:1023740043F0800320F82230DCE710B44B78002BC4
:102384004BD10A7830F8223013F4804F0BD030F858
:10239400223023F0F0031B051B0D43F4404343F0AC
:1023A400800320F822300A7830F8223013F0400FEE
:1023B4000BD030F8223023F0F0031B051B0D43F43F
:1023C400004343F0C00320F822300A7830F822306A
:1023D40023F0F0031B051B0D43F4004343F0C0033B
:1023E40020F822300B7830F8232092B222F4804275
:1023F40022F0700248F28004224320F823200A7855
:1024040030F822309BB223F4E04323F0400323430B
:1024140020F82230002010BC70470A7830F82230AF
:1024240013F4804F0BD030F8223023F0F0031B0557
:102434001B0D43F4404343F0800320F822300A7814
:1024440030F8223013F0400F0BD030F8223023F054
:10245400F0031B051B0D43F4004343F0C00320F8B5
:1024640022300A7830F8223023F0F0031B051B0DCC
:1024740043F4404343F0800320F822300B7830F8D3
:10248400232092B222F4E04222F0400248F2800477
:10249400224320F823200A7830F822309BB223F418
:1024A400804323F07003234320F82230B2E70A78F4
:1024B4008AB14B7813BB30F822309BB223F48043AB
:1024C40023F0700383F4805343F4004343F0800308
:1024D40020F8223010E030F822309BB223F48043FD
:1024E40023F0400383F4805383F0100343F4004348
:1024F40043F0800320F822300020704730F8223067
:102504009BB223F4E04323F0400383F0100343F42D
:10251400004343F0800320F82230EDE74B781BB3EF
:102524000A7830F8223013F0400F0BD030F8223004
:1025340023F0F0031B051B0D43F4004343F0C003D9
:1025440020F822300A7830F822309BB223F4E0439A
:1025540023F0400383F0300343F4004343F080034B
:1025640020F82230002070470A7830F8223013F423
:10257400804F0BD030F8223023F0F0031B051B0DE5
:1025840043F4404343F0800320F822300A7830F8C3
:1025940022309BB223F4804323F0700383F440532E
:1025A40043F4004343F0800320F82230DAE711B902
:1025B4008023A0F84C300020704700207047002092
:1025C4007047B0F8440080B2704700207047013370
:1025D4005B1000EB420202F5806263B110B40C7828
:1025E400487844EA002422F8044B0231013B002BD2
:1025F400F5D110BC70477047F8B58A694C78012C46
:1026040035D00B699A4240F2F080D21A8A618A7AF4
:10261400002A40F0FA80B0F8502092B20C7802EB15
:10262400C402063200EB42023E2B40F2E280C3F3C6
:102634004F1413F01F0F01D1013CA4B26FEAC4641C
:102644006FEA5444A4B2C2F800440A7830F8223045
:102654009BB223F4804323F0700383F4405343F488
:10266400004343F0800320F822300020F8BD0F69B6
:10267400BA4226D9D21B8A610E4605468B7A23B309
:102684000B7830F8232012F0400F6CD0002C39D195
:10269400B0F8502092B202EBC303063300EB4303BD
:1026A4003E2F23D9C7F34F1217F01F0F01D1013A60
:1026B40092B26FEAC2626FEA524292B2C3F8002445
:1026C4002AE000238B611746D6E7BBB28A884969A2
:1026D400FFF77DFFB5F850309BB2327803EBC203AD
:1026E400023305EB4303C3F800742BE0C7F34F0236
:1026F40017F0010F01D0013292B2920292B2C3F8E4
:10270400002409E0B0F8502092B202EBC303023374
:1027140000EB4303C3F800743289BBB271692846E5
:10272400FFF755FF7378002B4FD1327835F82230FC
:1027340023F0F0031B051B0D43F4004343F0C003D7
:1027440025F82230327835F822309BB223F4E04366
:1027540023F0400383F0300343F4004343F0800349
:1027640025F8223081E724BBB0F8502092B202EB66
:10277400C303023300EB43033E2F0ED9C7F34F12BA
:1027840017F01F0F01D1013A92B26FEAC2626FEAE9
:10279400524292B2C3F8002415E0C7F34F0217F077
:1027A400010F01D0013292B2920292B2C3F8002416
:1027B40009E0B0F8502092B202EBC303023300EBFD
:1027C4004303C3F80074F288A7E7012BBAD1327827
:1027D40035F8223023F0F0031B051B0D43F440436E
:1027E40043F0800325F82230ACE700238B611346C5
:1027F4000DE7C3F34F0413F0010F01D00134A4B269
:10280400A402A4B2C2F800441FE7C4B9B0F850202F
:1028140092B20C7802EBC402023200EB42023E2B6D
:1028240029D9C3F34F1413F01F0F01D1013CA4B2F3
:102834006FEAC4646FEA5444A4B2C2F800444A780C
:102844008ABBB0F8502092B20C7802EBC402063274
:1028540000EB42023E2B1AD9C3F34F1413F01F0F9F
:1028640001D1013CA4B26FEAC4646FEA5444A4B237
:10287400C2F80044E9E6C3F34F0413F0010F01D09A
:102884000134A4B2A402A4B2C2F80044D7E7C3F34B
:102894004F0413F0010F01D00134A4B2A402A4B276
:1028A400C2F80044D1E6012A7FF4CFAEB0F850203C
:1028B40092B20C7802EBC402023200EB4202C2F87C
:1028C4000034C2E601335B1000EB420202F5806281
:1028D40004E0106821F8020B013B0432002BF8D10C
:1028E4007047D0F818321BB10020C3F814027047A7
:1028F4000220704710B5D0F81842D0F81C325BB1F2
:1029040094F80002FF2807D09B6894F8012221461E
:102914009847FF2384F80032002010BD432303802E
:102924000048704708000020432303800048704794
:102934004C0000204323038000487047900000208F
:102944000A23038000487047D400002038B50446A9
:10295400D0F8185201F0FAF9C5F80C02D4F818327C
:102964004BB1D4F81C32DB6805F50371D5F80402C9
:102974009847002038BD022038BD000070B50546D8
:102984000C46D0F818620B7813F0600224D0202A89
:1029940025D1CA88CAB113F0800F0AD14B7886F8C2
:1029A4000032CB8886F80132CA88314600F090FCA8
:1029B40015E0D0F81C329B68314660789847E2886D
:1029C4003146284600F06FFC09E0D0F81C329B68C1
:1029D40000224878984702E04B780A2B01D0002067
:1029E40070BD0122014900F05EFCF8E77C01002083
:1029F40010B50446812101F042F90121204601F07D
:102A04003EF98221204601F03AF9D4F8183253B144
:102A1400D4F81C325B689847D4F8180201F0A0F986
:102A24000023C4F81832002010BD38B50446037CD6
:102A340073BB4FF400730222812101F00FF94FF4AC
:102A4400007302220121204601F008F90823032221
:102A54008221204601F002F94FF4077001F07CF95D
:102A64000546C4F8180248B3D4F81C321B689847CA
:102A74000023C5F81432C5F81832237CA3B14023CF
:102A8400D5F804220121204601F052F9002038BD76
:102A940040230222812101F0E1F840230222012196
:102AA400204601F0DBF8D1E74FF40073D5F8042297
:102AB4000121204601F03CF9002038BD012038BD39
:102AC40019B1C0F81C120020704702207047D0F8DA
:102AD4001832C3F80812C3F8102200207047D0F847
:102AE4001832C3F8041200207047D0F818228AB1B3
:102AF40008B5D2F814320BB1012008BD0123C2F885
:102B04001432B2F81032D2F80822812101F002F90D
:102B1400002008BD02207047D0F818229AB108B5E9
:102B2400037C3BB14023D2F80422012101F000F9D7
:102B3400002008BD4FF40073D2F80422012101F0F3
:102B4400F7F8002008BD0220704798B108B5034685
:102B5400D0F8140210B10020C3F8140209B1C3F86C
:102B640010121846012380F8FC31027001F020F89D
:102B7400002008BD0220704719B1C0F814120020CB
:102B840070470220704708B501F05AF8002008BDCC
:102B940008B5D0F8143223B11B68984718B1022045
:102BA40008BD022008BD002008BD08B5D0F81432C5
:102BB4005B689847002008BD38B5044600F50275E7
:102BC400284600F00DF90123C4F8F431B4F80E32AC
:102BD400C4F8F83194F8081201F01F03012B0ED049
:102BE4003BB1022B10D001F08001204601F055F8D2
:102BF40003E02946204600F06DFA002038BD29463E
:102C0400204600F08BFAF8E72946204600F0A2FAA5
:102C1400F3E710B5044619BB1346D0F8F421032A90
:102C240027D1D0F80C11D0F8102191420BD8D0F84C
:102C340014321B691BB190F8FC21032A0ED02046E4
:102C440000F05DFB15E0891AC0F80C118A4228BF18
:102C54000A4692B2194600F04AFB0AE09847EEE7AA
:102C64000A46D0F814329B691BB190F8FC11032971
:102C740001D0002010BD11469847FAE710B504466C
:102C8400002947D11346D0F8F421022A05D094F83C
:102C94000032012B3AD0002010BDC169026A914272
:102CA40017D88169B1FBF2F302FB13132BB98A42E3
:102CB40003D8D0F8F831994218D3D4F81432DB6829
:102CC4001BB194F8FC21032A1DD0204600F022FBFE
:102CD400DDE78A1AC26192B2194600F0F1FA0023C4
:102CE4001A461946204601F023F8D0E7002211467F
:102CF40000F0E6FA0021C4F8F8110B460A46204613
:102D040001F016F8C3E720469847DEE7002384F86D
:102D14000032C0E70A46D0F814325B69002BBAD0FF
:102D240090F8FC110329B6D111469847B3E738B59A
:102D3400044640230022114600F090FF4025C4F8C9
:102D440010512B4600228021204600F087FF256287
:102D5400012384F8FC31D4F818322BB1D4F814329E
:102D64005B68217920469847002038BD0174002013
:102D7400704790F8FC3180F8FD31042380F8FC3171
:102D84000020704790F8FD3180F8FC310020704736
:102D940008B590F8FC31032B01D0002008BDD0F811
:102DA4001432DB69002BF8D09847F6E7002302E0E1
:102DB4000133DBB201300278002AF9D1184670479A
:102DC4004B88012B00D0704710B50446C0F804327C
:102DD400D0F814329B689847204600F090FA10BD52
:102DE4000B7803704B7843708B78CA7803EB02231B
:102DF40043800B794A7903EB022383808B79CA7968
:102E040003EB0223C380704710B50446802100F011
:102E140044FF0021204600F040FF10BD30B583B0D0
:102E240004460D464A88130A013B062B00F28180B2
:102E3400DFE803F00413277F7F637000D0F81032BB
:102E44001B680DF10601007C9847BDF8062012B1FD
:102E5400EB88002B71D103B030BD037C43B9D0F8AB
:102E640014329B6A0DF10600984702234370ECE785
:102E7400D0F81432DB6A0DF1060098470223437040
:102E8400E3E7D2B2052A34D8DFE802F0030B131BC0
:102E9400232BD0F810325B680DF10601007C9847B3
:102EA400D3E7D0F810329B680DF10601007C9847F7
:102EB400CBE7D0F81032DB680DF10601007C9847AF
:102EC400C3E7D0F810321B690DF10601007C984766
:102ED400BBE7D0F810325B690DF10601007C98471E
:102EE400B3E7D0F810329B690DF10601007C9847D6
:102EF400ABE72946FFF788FFADE7037C33B9D0F889
:102F040014325B6B0DF1060098479EE72946FFF7E4
:102F14007BFFA0E7037C43B9D0F814321B6B0DF19F
:102F240006009847072343708FE72946FFF76CFF95
:102F340091E72946FFF768FF8DE79A4228BF1A46B2
:102F4400ADF806200146204600F0ADF983E738B518
:102F540004468B88E3B9CB88D3B98D7805F07F0517
:102F640090F8FC31032B0CD080F8FE51294600F078
:102F7400C3FE204600F0C3F935B1022384F8FC31C6
:102F840038BDFFF741FF38BD012384F8FC3138BD5B
:102F94002046FFF739FF38BD38B504460D46897819
:102FA400254B1970012909D890F8FC31022B09D05E
:102FB400032B1CD02946FFF727FF38BD2946FFF70E
:102FC40023FF38BD81B14160032380F8FC31FFF752
:102FD400DFFD022803D0204600F091F938BD2946D0
:102FE4002046FFF711FF38BD00F089F938BD89B1DB
:102FF400436899421DD0D9B2FFF7D7FD0E4B19781B
:1030040061602046FFF7C4FD02280DD0204600F081
:1030140076F938BD022380F8FC314160FFF7C5FD25
:10302400204600F06CF938BD29462046FFF7ECFE37
:1030340038BD00F064F938BD7D01002008B5CB88A7
:10304400012B08D190F8FC31022B07D0032B0DD0B3
:10305400FFF7DAFE08BDFFF7D7FE08BD01460023DF
:1030640041F8083F012200F01EF908BD0122011DAC
:1030740000F019F908BD08B590F8FC31023B012BAA
:103084000CD80123C360D0F804320BB10323C3600E
:10309400022200F10C0100F006F908BDFFF7B4FEAE
:1030A40008BD10B5044690F8FC31023B012B0ED844
:1030B4004B88012B00D010BD0023C0F80432D0F897
:1030C40014329B689847204600F019F910BDFFF7A9
:1030D4009BFEF0E708B54B78092B1CD8DFE803F01A
:1030E40012181B151B09051B0F0CFFF797FE002078
:1030F40008BDFFF72CFFFAE7FFF74EFFF7E7FFF7EE
:103104009DFFF4E7FFF7B7FFF1E7FFF759FEEEE79E
:10311400FFF7C7FFEBE7FFF777FEE8E738B50446AC
:103124000D4690F8FC31032B11D10B79012B03D9F7
:10313400FFF76AFE002038BDD0F814329B68984728
:10314400EB88002BF6D1204600F0D9F8F2E7FFF720
:103154005BFEEFE738B505460C468A880B7803F02A
:103164006003202B11D0D1B26378012B2BD0002B1C
:103174004DD0032B0DD190F8FC31022B0BD0032B37
:1031840010D02146FFF740FE03E0D0F814329B68CC
:103194009847002038BD0029FBD08029F9D000F0E1
:1031A4007CFDF6E7638823B919B1802901D000F0CA
:1031B40074FDD5F814329B68214628469847284662
:1031C40000F09DF8E5E790F8FC31022B05D0032BC5
:1031D4000AD02146FFF718FEDBE70029D9D0802961
:1031E400D7D000F05AFDD4E76388002BD1D111F079
:1031F4007F0F03D1284600F082F8CAE700F05BFD98
:10320400D5F814329B68214628469847F2E790F88F
:10321400FC31022B05D0032B09D02146FFF7F4FD26
:10322400B7E711F07F0FB4D000F037FDB1E712F02B
:10323400800F11D101F07F04103400EB0414043426
:10324400284600F046FD70B1012323600222214686
:10325400284600F028F89CE701F07F04013400EBD5
:1032640004140434ECE700232360EFE7D0B170B515
:103274000D4616460446FFF799FD0130400080B222
:103284003080287003236B70022307E05A1CD2B2EB
:103294000134E9540233DBB20021A9542178002916
:1032A400F4D170BD704710B513460222C0F8F42162
:1032B4008361C3610A46002100F02CFD002010BD8B
:1032C40008B513460A46002100F024FD002008BD7D
:1032D40010B513460322C0F8F421C0F80831C0F831
:1032E4000C310A46002100F023FD002010BD08B572
:1032F40013460A46002100F01BFD002008BD08B556
:103304000423C0F8F43100231A46194600F002FDE4
:10331400002008BD08B50523C0F8F43100231A467F
:10332400194600F005FD002008BD0064406400F16A
:10333400400383640023A0F84C3070470346426C7A
:10334400911C41641088B3F84C20013AA3F84C2036
:103354009A6C914200D070475B64FCE738B5044630
:103364000D46B0F84C30202B0DD0236C9A1C2264EF
:103374001D80B4F84C300133A4F84C30226CA36C9B
:103384009A4203D038BDFFF7D9FFEEE72464F9E78A
:10339400B0F84C007047000010B588B01D4B9A6916
:1033A40042F010029A619A6902F010020092009AA7
:1033B4009A6942F020029A619A6902F0200201920D
:1033C400019A9A6942F004029A619A6902F004022D
:1033D4000292029A9A6942F008029A619B6903F088
:1033E40008030393039B0C4C00224FF480512046A6
:1033F400FDF702F94FF4805304930123059300234E
:1034040006930223079304A92046FCF7F7FF08B0AC
:1034140010BD00BF00100240000C014002682E4B9A
:103424009A4200D070472DE9F04385B000260396F8
:1034340044E02A4D00224FF480512846FDF7DCF881
:10344400DFF8A880264F4FF0FF39CDF80090022313
:1034540003AA41463846FEF7FFF901224FF4805192
:103464002846FDF7C9F89DF80F309DF80E4004EB8F
:103474000324A4B200224FF480512846FDF7BCF87F
:10348400CDF80090022303AA08F104013846FEF7A0
:10349400E3F901224FF480512846FDF7ADF89DF879
:1034A4000F209DF80E3003EB02239BB20D4A1188C6
:1034B4000C44148051880B4453800136032EB8DD2C
:1034C400084C21880848FFF749FF002323806380C4
:1034D40005B0BDE8F08300BF00040040000C0140CB
:1034E400A80300207E01002054040020EC3E0008C4
:1034F400FEE7000008B50F480F4B03604FF48273DA
:10350400436000238360C360036143614FF400722E
:1035140082610822C2610362436283620A23C36236
:10352400FEF7BBFA00B908BD40F225110348FFF7C6
:10353400DFFF00BF3C050020003001400C3F0008C5
:1035440008B50F480F4B03604FF4827343600023A8
:1035540083604FF40062C260036143614FF4007200
:103564008261C3610362436283620A23C362FEF71A
:1035740094FA00B908BD40F23D110348FFF7B8FFC3
:10358400A8030020003800400C3F000808B50F488D
:103594000F4B03604FF4827343604FF40043836026
:1035A4000023C360036143614FF400728261C3610D
:1035B4000362436283620A23C362FEF76EFA00B9B0
:1035C40008BD40F255110348FFF792FFE4040020C0
:1035D400003C00400C3F000800B587B01848194B68
:1035E400036040F2CF234360002383600922C2605A
:1035F40003618361FEF76AFC98B906A94FF480530E
:1036040041F8103D0E48FEF7CDFA78B90023009337
:10361400019369460A48FEF772FC60B907B05DF889
:1036240004FB40F269110848FFF762FF40F26F1192
:103634000548FFF75DFF4FF4BB710348FFF758FFE0
:10364400A4040020000400400C3F000808B50C4806
:103654000C4B03600C4B436000238360C3604FF446
:103664008042026143618361C3610362FCF7CAFF64
:1036740000B908BD40F20D110448FFF739FF00BF3F
:103684000004002000580040A08601000C3F000800
:1036940000B597B001220C924FF480330D930021B2
:1036A4000E9110920222139214934FF4E013159387
:1036B4000CA8FDF7F1FC48BB0F23079302210891E6
:1036C400002309934FF480620A920B9307A8FDF735
:1036D40009FFF8B9102301930023069301A8FDF70D
:1036E400D3FFD8B9FDF7BAFF0E4BA3FB0030800916
:1036F400FCF758FE0420FCF76BFE002211464FF045
:10370400FF30FCF711FE17B05DF804FBDA21064820
:10371400FFF7EEFEE8210448FFF7EAFEEF21024836
:10372400FFF7E6FED34D62100C3F000810B588B0D9
:103734001A48FFF7FAFDFCF7ADFDFFF7A9FFFFF705
:103744002BFEFFF7D7FEFFF7FBFEFFF71FFF00F08E
:1037540073F9FFF741FFFFF779FF4FF47A70FCF735
:10376400BDFD0F48FEF712FA10E00C48FFF7E6FD26
:1037740008AB03EB440323F8200C01340F2CF4DDD5
:103784002021684600F09AF90128F9D00348FFF790
:10379400FFFD1028FAD90024F0E700BF54040020EC
:1037A400A404002000B583B0244B9A6942F00102BE
:1037B4009A619A6902F001020092009ADA6942F071
:1037C4008052DA61DB6903F080530193019B03208B
:1037D400FCF798FD002211466FF00B00FCF7A4FDE6
:1037E400002211466FF00A00FCF79EFD00221146EC
:1037F4006FF00900FCF798FD002211466FF00400F9
:10380400FCF792FD002211466FF00300FCF78CFDDB
:10381400002211466FF00100FCF786FD00221146DC
:103824004FF0FF30FCF780FD054A536823F0E06356
:1038340043F00073536003B05DF804FB00100240D2
:103844000000014002680F4B9A4200D0704700B557
:1038540087B04FF440630293122303930323059329
:1038640002A90948FCF7CAFD084BDA6942F4800250
:10387400DA61DB6903F480030193019B07B05DF80F
:1038840004FB00BF00580040000C0140001002403F
:1038940010B588B00368304A934207D02F4A934248
:1038A40023D02F4A934241D008B010BD2D4B9A69C2
:1038B40042F480529A619B6903F480530193019B03
:1038C400A02304930223059303230793264C04A9FE
:1038D4002046FCF793FD40230493002305930693AD
:1038E40004A92046FCF78AFDDEE71E4BDA6942F4A0
:1038F4008042DA61DB6903F480430293029B4FF454
:10390400204304930223059303230793174C04A92C
:103914002046FCF773FD4FF4804304930023059382
:10392400069304A92046FCF769FDBDE70D4BDA694F
:1039340042F40042DA61DB6903F400430393039B1E
:1039440028230493022305930323079304A9074818
:10395400FCF754FDA8E700BF0030014000380040E8
:10396400003C00400010024000080140000C0140EF
:1039740002680E4B9A4200D0704700B583B003F53D
:103984000333DA6942F00202DA61DB6903F002030D
:103994000193019B002211461D20FCF7C5FC1D204C
:1039A400FCF7F4FC03B05DF804FB00BF0004004026
:1039B4007047FEE7FEE7FEE7FEE770477047704793
:1039C40008B5FCF779FCFCF714FD08BD08B50248FE
:1039D400FDF72DFA08BD00BF880F002008B5024886
:1039E400FEF768F908BD00BFA40400200F4B1A6855
:1039F40042F001021A6059680D4A0A405A601A6876
:103A040022F0847222F480321A601A6822F480222E
:103A14001A605A6822F4FE025A604FF41F029A6038
:103A24004FF00062034B9A60704700BF00100240E1
:103A34000000FFF800ED00E010B5094C0022094930
:103A44002046FFF782F808492046FFF795F8074912
:103A54002046FFF735F82046FFF795F810BD00BF64
:103A64009405002044010020E00000201C010020F7
:103A7400002070470020704710B5054C01462046D1
:103A8400FFF72DF82046FFF747F8002010BD00BFD0
:103A94009405002010B5064C002206492046FFF785
:103AA40016F805492046FFF71AF8002010BD00BF9C
:103AB40094050020A00B0020B8070020094BD3F880
:103AC4001832D3F814320BB10120704710B50A46EE
:103AD4000146044C2046FEF7FAFF2046FFF705F89E
:103AE40010BD00BF9405002002680E4B9A4200D01E
:103AF400704700B583B003F5DA33DA6942F40002A3
:103B0400DA61DB6903F400030193019B002211468F
:103B14001420FCF709FC1420FCF738FC03B05DF812
:103B240004FB00BF005C004008B500F22C41D0F853
:103B34005C04FFF741F808BD08B500EB4113D3F866
:103B44003C22D0F85C04FFF764F808BD08B500EB2C
:103B54004113DA6BD0F85C04FFF790F808BD08B5A0
:103B6400D0F85C04FFF714F908BD10B50446012130
:103B7400D0F85C04FFF7FAF8D4F85C04FFF7D7F840
:103B840010BD000010B50446D0F85C04FFF7F1F84E
:103B9400A36923B1024A136943F00603136110BDFC
:103BA40000ED00E008B5D0F85C04FFF7EBF808BDC1
:103BB40010B504461F48C0F85C44C4F820021E4BEC
:103BC400036008234360022383600023C36083618E
:103BD400C3610362FCF7CAFD30BB182300221146FF
:103BE400D4F82002FDF72AFA582300228021D4F8C1
:103BF4002002FDF723FAC02300228121D4F82002F9
:103C0400FDF71CFA4FF4887300220121D4F8200236
:103C1400FDF714FA4FF4807300228221D4F82002B5
:103C2400FDF70CFA002010BD4FF497710348FFF71D
:103C34005FFCD2E7880F0020005C00401C3F0008B6
:103C440008B5D0F82002FCF7FCFD18B1022803D017
:103C5400022008BD002008BD012008BD10B51C4687
:103C640013462246D0F82002FCF716FE18B10228AB
:103C740003D0022010BD002010BD012010BD08B5E6
:103C8400D0F82002FCF731FE18B1022803D002203C
:103C940008BD002008BD012008BD08B5D0F82002E9
:103CA400FDF777F918B1022803D0022008BD0020DF
:103CB40008BD012008BD08B5D0F82002FDF797F92A
:103CC40018B1022803D0022008BD002008BD01203D
:103CD40008BDD0F8202211F0800F06D101F07F0139
:103CE40002EB411191F82A02704701F07F0302EBC5
:103CF400431191F82A00704708B5D0F82002FCF768
:103D0400B7FD18B1022803D0022008BD002008BD69
:103D1400012008BD08B5D0F82002FCF733FE18B125
:103D2400022803D0022008BD002008BD012008BDE0
:103D340008B5D0F82002FCF7FFFD18B1022803D023
:103D4400022008BD002008BD012008BD08B5D0F838
:103D54002002FCF710FE08BD0048704784010020D3
:103D64007047704712230B80004870472C010020D5
:103D740004230B80004870474001002008B50A4620
:103D840028B105490548FFF771FA034808BD0249FF
:103D94000248FFF76BFAF8E7E8130020303F000809
:103DA40010B5044C0A4621460348FFF75FFA204643
:103DB40010BD00BFE81300203C3F000808B50A46C8
:103DC40028B105490548FFF751FA034808BD0249DF
:103DD4000248FFF74BFAF8E7E8130020483F0008D1
:103DE40008B50A4628B105490548FFF73FFA0348D4
:103DF40008BD02490248FFF739FAF8E7E813002042
:103E0400583F000808B50A4628B105490548FFF798
:103E14002DFA034808BD02490248FFF727FAF8E7DC
:103E2400E8130020643F0008002103E00B4B5B58BB
:103E3400435004310A480B4B42189A42F6D30A4ABB
:103E440002E0002342F8043B084B9A42F9D3FFF7FF
:103E5400CDFD00F00FF8FFF769FC70477C3F0008C8
:103E6400000000206001002060010020E81500200F
:103E7400FEE7000070B500250C4E0D4CA41BA410E9
:103E8400A54209D100F01AF800250A4E0A4CA41BD9
:103E9400A410A54205D170BD56F8253098470135C8
:103EA400EEE756F8253098470135F2E7743F0008ED
:103EB400743F0008743F0008783F0008F8B500BF5D
:103EC400F8BC08BC9E467047F8B500BFF8BC08BCF7
:043ED4009E4670474F
:103ED80002030405060708090A0B0C0D0E0F101043
:103EE80001020000038200000182000000000000BF
:103EF8000000000001020304060708090000000092
:103F0800010203042E2E2F5372632F6D61696E2EEA
:103F1800630000002E2E2F5372632F757362645F47
:103F2800636F6E662E630000566F6C7461426F7823
:103F38000000000059616E6465782C204C4C4300E9
:103F48003030303030303030303031410000000017
:103F580043444320436F6E6669670000434443202F
:0C3F6800496E74657266616365000000BC
:043F74000902000836
:043F7800E501000857
:103F7C00010000001000000009024300020100C013
:103F8C0032090400000102020100052400100105A1
:103F9C002401000104240202052406000107058205
:103FAC000308001009040100020A000000070501C3
:103FBC000240000007058102400000000902430096
:103FCC00020100C0320904000001020201000524B4
:103FDC00001001052401000104240202052406003E
:103FEC00010705820308001009040100020A000001
:103FFC000007050102000200070581020002000013
:10400C0009074300020104C0320904000001020246
:10401C000100052400100105240100010424020202
:10402C000524060001070582030800FF09040100AE
:10403C00020A00000007050102400000070581028A
:10404C00400000000A0600020000004001000000D1
:10405C002F2A0008F529000881290008000000001B
:10406C00F9280008E7280008512900080000000082
:10407C0000000000000000002D2900082129000884
:10408C00392900084529000800A24A04993A000879
:10409C00753A0008793A00087D3A000812010002CE
:1040AC000202004083044057000201020301000099
:1040BC0004030904693D0008753D0008A53D00088E
:1040CC00813D0008C13D0008E53D0008093E00089F
:0400000508003E2D84
:00000001FF
